:0400000033EF00F0EA
:0600080021826AEF00F006
:100018002180D8CF11F0E8CF12F0E0CF13F0D9CF7C
:1000280014F0DACF15F0F0A01CEF00F01EEF00F08E
:1000380027EF00F0F090160E0B6E000E0C6E0A0EF5
:100048000D6E99EC00F015C0DAFF14C0D9FF13C08B
:10005800E0FF12C0E8FF11C0D8FF21901000E9EFBF
:1000680000F0056E000E066E55EF00F005C002F0B8
:10007800010E036E022A43EF00F0D8900336022ED9
:1000880041EF00F003508B1A050E036E0F0E026E3F
:10009800F10EE82EFED7022EFCD7032EFAD700F079
:1000A800062A0150020D0650026E036AF350025CE4
:1000B8000350800A046EF450800A0458D8A067EFF1
:1000C80000F069EF00F03AEF00F01200D9CF07F026
:1000D800DACF08F0F3CF09F0F4CF0AF0F2A277EF05
:1000E80000F079EF00F082EF00F0F292160E016E48
:1000F800000E026E0A0E036EC1EC00F0F0A287EF4C
:1001080000F089EF00F08FEF00F0F092030E016E1F
:10011800000E35EC00F00AC0F4FF09C0F3FF08C078
:10012800DAFF07C0D9FF21921100000E106EB1EF5F
:1001380000F010500B24D96E000E0C20DA6EDF5040
:100148008C6E0B0E0F6E260E0E6E5E0EE82EFED710
:100158000E2EFCD70F2EFAD7102A0D50105CD8A0FF
:10016800B8EF00F0BAEF00F09DEF00F00BC0D9FF38
:100178000CC0DAFFDF508C6E1200000E066ED9EF4D
:1001880000F006500124D96E000E0220DA6EDF500E
:10019800896E0B0E056E260E046E5E0EE82EFED7D7
:1001A800042EFCD7052EFAD7062A0350065CD8A0E1
:1001B800E0EF00F0E2EF00F0C5EF00F001C0D9FF7A
:1001C80002C0DAFFDF50896E1200680EF66E020E6A
:1001D800F76E000EF86E00EE16F010EE0AF0090049
:1001E800F5CFEEFFE550E150FAE1206A2190219227
:1001F800000123EF01F0000E896E000E8C6E8B90CB
:10020800000E7A6E000E0F015B6F000E5E6F5C9140
:100218005C935C95000E926E000E956E94901200A1
:10022800D08EF28EF28CF09CF08EF288F292F18CE5
:10023800F086F090F18AF088F092F18812002DECA7
:1002480001F0FFEC00F014EC01F029EF01F033EFBE
:1002580000F0700ED312D350FC0B0209D36E1200BB
:0A026800000102030405060708095F
:020000040020DA
:08000000FFFFFFFFFFFFFFFF00
:020000040030CA
:0E00000000285E3CFF5381FF0FC00FE00F4051
:00000001FF
