:0400000062EF04F0B7
:10080000003F065B4F666D7D077F6F777C395E79B1
:10081000713F065B4F666D7D077F6F777C395E7930
:10082000710086227E6DD24620290B2170104080F7
:10083000523F065B4F666D7D077F6F090D61484330
:10084000D35F777C395E79713D76301E7538153708
:100850003F736B336D783E3E2A766E5B39640F23AF
:1008600008025F7C585E7B716F74100C75301454F5
:100870005C7367506D781C1C14766E5B463070019B
:100880000000000E136E0B0E1324D96EDA6A000EF0
:10089000DA22DF508DEC04F08A6E0B0E126E260EFB
:1008A000116E5E0EE82EFED7112EFCD7122EFAD74F
:1008B000132A030E13645FEF04F061EF04F043EFBB
:1008C00004F01200460EF66E090EF76E000EF86E7A
:1008D00000EE01F010EE0EF00900F5CFEEFFE5504E
:1008E000E150FAE1000EF86E080EF76E000199EF84
:1008F00004F0000E8C6E000E8A6E000E7A6E000EF2
:100900000F015E6F000E5C6F5B915B93000E956E46
:10091000000E936E9280928212000F6E010E0F24D1
:10092000F66EF76A080EF7220800F5CF10F01050A7
:100930001200AAEC04F079EC04F041EC04F09DEF15
:1009400004F000EF00F0C0F9A4B0999282F8809012
:10095000686F6C61700ED312D350FC0B0209D36E1A
:02096000120083
:020000040020DA
:08000000FFFFFFFFFFFFFFFF00
:020000040030CA
:0E00000000255F3FFFD385FF0FC00FE00F40CC
:00000001FF
