:040000002BEF3FF0B3
:107E560000015DEF3FF0700ED312D350FC0B020908
:107E6600D36E1200000E7A6E0F015C815C835C8516
:107E76009380938293841200016E01C0ADFFACA281
:107E860047EF3FF049EF3FF042EF3FF012009EAA66
:107E96004FEF3FF051EF3FF04AEF3FF0ABA256EF06
:107EA6003FF058EF3FF05BEF3FF0AB9800F0AB8848
:107EB600AE5012002EEC3FF035EC3FF0800E0E6E09
:107EC600250E0F6E000E106E000E116E7BEC3FF04D
:107ED6004AEC3FF0146E0D0E3FEC3FF014503FECB1
:107EE6003FF00D0E3FEC3FF06BEF3FF000EF00F080
:107EF6000F015D9D5D9F949C948E240EAC6E900E3A
:107F0600AB6E080EB86E000E016E240E026EF40EF5
:107F1600036E000E046E0EC005F00FC006F010C012
:107F260007F011C008F0AEEC3FF0030EA0EF3FF0F3
:107F3600D8900432033202320132E82E9BEF3FF032
:107F4600FF0E0124126EFF0E0220136E12C0AFFF49
:107F56001350B06E1200000E096E000E0A6E000E6F
:107F66000B6E000E0C6E0550061007100810D8B4E4
:107F7600BFEF3FF0C1EF3FF0F7EF3FF0010E0D6EA0
:107F8600CBEF3FF0D89005360636073608360D2A71
:107F960008AED0EF3FF0D2EF3FF0C5EF3FF0D890FC
:107FA60009360A360B360C360550015C0650025867
:107FB6000750035808500458D8A0E4EF3FF0E6EF06
:107FC6003FF0EFEF3FF00550015E0650025A0750B2
:107FD600035A0850045A0980D890083207320632EC
:107FE60005320D2ED2EF3FF009C001F00AC002F0B3
:0A7FF6000BC003F00CC004F01200F1
:020000040020DA
:08000000FFFFFFFFFFFFFFFF00
:020000040030CA
:0E00000000285E3CFF5381FF0FC00FE00F4051
:00000001FF
