:04000000B5EF00F068
:100008001C82F6CF04F0F7CF05F0F8CF06F0F5CF55
:1000180007F09EAA12EF00F014EF00F0ABEF00F02B
:100028009E9AAECF1BF0710E1B18D8A41EEF00F0DD
:1000380020EF00F029EF00F03F0E026E080E036E6D
:10004800E4EC04F08B80ABEF00F0770E1B18D8A41B
:1000580030EF00F032EF00F03BEF00F0550E026E8B
:10006800080E036EE4EC04F08B82ABEF00F0650E33
:100078001B18D8A442EF00F044EF00F04DEF00F059
:100088006B0E026E080E036EE4EC04F08B84ABEF8B
:1000980000F0610E1B18D8A454EF00F056EF00F0E2
:1000A8005FEF00F0810E026E080E036EE4EC04F0C0
:1000B8008B90ABEF00F0730E1B18D8A466EF00F01E
:1000C80068EF00F071EF00F0950E026E080E036EF7
:1000D800E4EC04F08B92ABEF00F0640E1B18D8A48C
:1000E80078EF00F07AEF00F083EF00F0A90E026ECF
:1000F800080E036EE4EC04F08B94ABEF00F0720E84
:100108001B18D8A48AEF00F08CEF00F097EF00F0EE
:10011800010E026E080E036EE4EC04F08B808B82F5
:100128008B84ABEF00F0660E1B18D8A49EEF00F08E
:10013800A0EF00F0ABEF00F0210E026E080E036E88
:10014800E4EC04F08B908B928B94ABEF00F007C03B
:10015800F5FF06C0F8FF05C0F7FF04C0F6FF1C92C4
:0601680011001EEF05F07E
:10080000000D546F646173206C6173206C616D70B6
:100810006172617320656E63656E64696461730DF6
:10082000000D546F646173206C6173206C616D7096
:10083000617261732061706167616461730D000DA5
:100840004C616D70617261203120656E63656E640C
:100850006964610D000D4C616D7061726120322020
:10086000656E63656E646964610D000D4C616D7049
:10087000617261203320656E63656E646964610D29
:10088000000D4C616D706172612031206170616793
:1008900061646F0D000D4C616D70617261203220DA
:1008A0006170616761646F0D000D4C616D70617204
:1008B000612033206170616761646F0D0000000E7C
:1008C000106E000E116E000E126E000E136E0C50A4
:1008D0000D100E100F10D8B470EF04F072EF04F08A
:1008E000A8EF04F0010E146E7CEF04F0D8900C36E3
:1008F0000D360E360F36142A0FAE81EF04F083EF5B
:1009000004F076EF04F0D890103611361236133614
:100910000C50085C0D5009580E500A580F500B58D7
:10092000D8A095EF04F097EF04F0A0EF04F00C507E
:10093000085E0D50095A0E500A5A0F500B5A10807B
:10094000D8900F320E320D320C32142E83EF04F099
:1009500010C008F011C009F012C00AF013C00BF06B
:1009600012000F015D9D5D9F949C948E240EAC6ED1
:10097000900EAB6E080EB86E000E086E240E096E57
:10098000F40E0A6E000E0B6E15C00CF016C00DF0C2
:1009900017C00EF018C00FF05FEC04F0030ED6EF96
:1009A00004F0D8900B320A3209320832E82ED1EF27
:1009B00004F0FF0E0824196EFF0E09201A6E19C0EC
:1009C000AFFF1A50B06E1200F0EF04F002C0F6FF55
:1009D00003C0F7FF0800F55013EC05F0024A032AA4
:1009E00002C0F6FF03C0F7FF0800F5500009D8A4C5
:1009F000FCEF04F0FEEF04F0E6EF04F0120031EC3F
:100A000005F028EC05F038EC05F0800E156E250E8B
:100A1000166E000E176E000E186EB1EC04F00FEF9C
:100A200005F0B5EF00F0016E01C0ADFFACA21BEF09
:100A300005F01DEF05F016EF05F012001B6A1C9083
:100A40001C92000EF86E080EF76E0001FFEF04F026
:100A50008B508B508B50000E7A6E9490949294949D
:100A60001200700ED312D350FC0B0209D36E120089
:0A0A7000F28EF28C9D8A9E8A12001D
:020000040020DA
:08000000FFFFFFFFFFFFFFFF00
:020000040030CA
:0E00000000285E3CFF5381FF0FC00FE00F4051
:00000001FF
