:0400000015EF00F008
:100008005E82F2A40AEF00F00CEF00F013EF00F0AC
:10001800F294010E8B1AFF0ED76EFA0ED66E5E9210
:0600280011001CEF0BF0BB
:0D08000000544D52303A202530357500006F
:10080E003EC0D9FF3FC0DAFFDECFF6FFDDCFF7FFE8
:10081E000800F550250AD8A417EF04F019EF04F0DC
:10082E0088EF05F03EC0D9FF3FC0DAFFDE2A000E8A
:10083E00DD22000E0001636F000E626F62C066F073
:10084E0063C067F064696569000E4F6E000E4E6EF0
:10085E007CEF04F0000166813EC0D9FF3FC0DAFF95
:10086E00DE2A000EDD227CEF04F00001668333EFFA
:10087E0004F00001668533EF04F00001668733EF64
:10088E0004F00001668933EF04F0000E4F6E010E86
:10089E004E6E7CEF04F03EC0D9FF3FC0DAFFDECFD4
:1008AE00F6FFDDCFF7FF0800F550426E436A435066
:1008BE00000AD8B465EF04F04CEF04F04250200A61
:1008CE00D8B444EF04F0030AD8B448EF04F0080A91
:1008DE00D8B440EF04F0060AD8B431EF04F01D0A84
:1008EE00D8B43CEF04F04CEF04F04E504F10D8B497
:1008FE0083EF04F085EF04F052EF04F0000166A1DF
:10090E008BEF04F08DEF04F08EEF04F066933EC093
:10091E00D9FF3FC0DAFFDECFF6FFDDCFF7FF0800CD
:10092E00F5502A0AD8A49EEF04F0A0EF04F0C9EF08
:10093E0004F03EC0D9FF3FC0DAFFDE2A000EDD22F2
:10094E0040C0D9FF41C0DAFFDFCF42F0020EDE26F3
:10095E00DFCF43F0000EDD2242C0D9FF43C0DAFFE5
:10096E00DECF62F0DDCF63F063BFC2EF04F0C0EF05
:10097E0004F0FFEF04F06681626D631FD8B0632B45
:10098E00FFEF04F03EC0D9FF3FC0DAFFDECF08F024
:10099E00DDCF09F0A5EC06F008C062F009C063F0E7
:1009AE00E0EF04F03EC0D9FF3FC0DAFFDE2A000EB2
:1009BE00DD22D00E426EFF0E436E3EC0D9FF3FC009
:1009CE00DAFFDECFF6FFDDCFF7FF0800F550446EFD
:1009DE00456A4250442643504522455009E10A0ECD
:1009EE00445CD8A0FDEF04F0FFEF04F0D9EF04F063
:1009FE003EC0D9FF3FC0DAFFDECFF6FFDDCFF7FFF7
:100A0E000800F550750AD8A40FEF05F011EF05F0A8
:100A1E0052EF05F03EC0D9FF3FC0DAFFDE2A000ECE
:100A2E00DD2240C0D9FF41C0DAFFDFCF42F0020E17
:100A3E00DE26DFCF43F0000EDD2242C0D9FF43C0D9
:100A4E00DAFFDECF44F0DDCF45F044C046F045C0BE
:100A5E0047F0486A496A4A6A4B6A4C6A4D6A3CC01A
:100A6E001CF03DC01DF046C01EF047C01FF048C030
:100A7E0020F049C021F04AC022F04BC023F04CC0F8
:100A8E0024F04DC025F0A4EC05F01CC03CF01DC0B8
:100A9E003DF0A3EF05F03EC0D9FF3FC0DAFFDECF39
:100AAE00F6FFDDCFF7FF0800F550250AD8A462EF58
:100ABE0005F064EF05F07BEF05F03EC0D9FF3FC0B7
:100ACE00DAFFDE2A000EDD22000E026E250E016E0A
:100ADE003CC003F03DC004F030EC08F0000E3D6E5B
:100AEE00010E3C6EA3EF05F03EC0D9FF3FC0DAFF0A
:100AFE00DE2A000EDD22000E3D6E000E3C6EA3EFD0
:100B0E0005F03EC0D9FF3FC0DAFFDECFF6FFDDCFE6
:100B1E00F7FF0800F550016E026A3CC003F03DC0BD
:100B2E0004F030EC08F03EC0D9FF3FC0DAFFDE2AF9
:100B3E00000EDD2275EF05F01200000165BFAAEF71
:100B4E0005F0ACEF05F0ADEF05F0669365BFBAEFBB
:100B5E0005F0655106E16405D8B0B8EF05F0BAEFBF
:100B6E0005F0C0EF05F0000E2F6E010E2E6EC4EFD5
:100B7E0005F064C02EF065C02FF062C030F063C087
:100B8E0031F01EC032F01FC033F020C034F021C04F
:100B9E0035F022C036F023C037F024C038F025C01F
:100BAE0039F0000E3B6E1F0E3A6E000E896F56EF37
:100BBE0006F03A06D8A03B066A0E3A24D96E000E0D
:100BCE003B20DA6E32C001F033C002F034C003F0C5
:100BDE0035C004F036C005F037C006F038C007F057
:100BEE0039C008F00A0E096E000E0A6E000E0B6E6A
:100BFE00000E0C6E000E0D6E000E0E6E000E0F6EC1
:100C0E00000E106EC8EC07F001C026F002C027F0EF
:100C1E0003C028F004C029F005C02AF006C02BF04E
:100C2E0007C02CF008C02DF02650300FDF6E2E06B8
:100C3E00D8A02F063006D8A0310632C001F033C03E
:100C4E0002F034C003F035C004F036C005F037C0F2
:100C5E0006F038C007F039C008F00A0E096E000E13
:100C6E000A6E000E0B6E000E0C6E000E0D6E000E58
:100C7E000E6E000E0F6E000E106E50EC07F001C0DF
:100C8E0032F002C033F003C034F004C035F005C0BA
:100C9E0036F006C037F007C038F008C039F03A50C9
:100CAE003B10D8B45DEF06F05FEF06F090EF06F064
:100CBE0032503310341035103610371038103910BA
:100CCE00D8A46CEF06F06EEF06F0E0EF05F02FBE45
:100CDE007BEF06F02F5006E12E04D8B079EF06F028
:100CEE007BEF06F0E0EF05F031BE86EF06F03150F7
:100CFE0008E13004D8A086EF06F088EF06F090EFFA
:100D0E0006F0000166B38EEF06F090EF06F0E0EF0E
:100D1E0005F01CC011F01DC012F06A0E3A24136EBD
:100D2E00000E3B20146E30C015F031C016F095EC5D
:100D3E0008F011C01CF012C01DF01200000E116E52
:100D4E00000E106E000E0F6E000E0E6EB1EF06F05E
:100D5E00084A092A08C0F6FF09C0F7FF0800F55037
:100D6E00200AD8B4BDEF06F0BFEF06F0AFEF06F0E5
:100D7E00F70E0A6EFF0E0B6E08C0F6FF09C0F7FFE6
:100D8E000800F5500C6E0D6A0A500C260B500D2201
:100D9E000D5009E1050E0C5CD8A0D8EF06F0DAEF85
:100DAE0006F0AFEF06F0E4EF06F0000E0F6E010E48
:100DBE000E6E084A092A19EF07F008C0F6FF09C09F
:100DCE00F7FF0800F5500A6E0B6A0B50000AD8B4F4
:100DDE00F3EF06F019EF07F00A502B0AD8B4E0EF44
:100DEE0006F0060AD8B4DCEF06F019EF07F010C0D3
:100DFE0001F011C002F0000E046E0A0E036EE7EC55
:100E0E000AF008C0F6FF09C0F7FF0800F550015EB2
:100E1E00000E025A300E0124106E000E0220116ECA
:100E2E00E0EF06F0D00E0A6EFF0E0B6E08C0F6FF56
:100E3E0009C0F7FF0800F5500C6E0D6A0A500C261B
:100E4E000B500D220D5009E10A0E0C5CD8A032EFAA
:100E5E0007F034EF07F0FEEF06F00E500F10D8A497
:100E6E003BEF07F03DEF07F04BEF07F010C00AF035
:100E7E0011C00BF00A1E0B1E0A4A0B2A0AC008F0FC
:100E8E000BC009F04FEF07F010C008F011C009F0C9
:100E9E00120020EE11F0070EDE6AE806FDE20950A0
:100EAE000A100B100C100D100E100F101010D8B4DD
:100EBE0063EF07F065EF07F0B7EF07F0010E196E5D
:100ECE0073EF07F0D89009360A360B360C360D360E
:100EDE000E360F361036192A10AE78EF07F07AEF6D
:100EEE0007F069EF07F0D890113612361336143624
:100EFE0015361636173618360950015C0A50025848
:100F0E000B5003580C5004580D5005580E500658EF
:100F1E000F50075810500858D8A098EF07F09AEFC6
:100F2E0007F0ABEF07F00950015E0A50025A0B5062
:100F3E00035A0C50045A0D50055A0E50065A0F50B3
:100F4E00075A1050085A1180D89010320F320E32B4
:100F5E000D320C320B320A320932192E7AEF07F0AB
:100F6E0011C001F012C002F013C003F014C004F05F
:100F7E0015C005F016C006F017C007F018C008F02F
:100F8E00120009500A100B100C100D100E100F103D
:100F9E001010D8B4D5EF07F0D7EF07F01FEF08F019
:100FAE00010E116EE5EF07F0D89009360A360B36B2
:100FBE000C360D360E360F361036112A10AEEAEFFD
:100FCE0007F0ECEF07F0DBEF07F00950015C0A5079
:100FDE0002580B5003580C5004580D5005580E5023
:100FEE0006580F50075810500858D8A001EF08F0B7
:100FFE0003EF08F013EF08F00950015E0A50025A91
:10100E000B50035A0C50045A0D50055A0E50065AE6
:10101E000F50075A1050085AD89010320F320E3215
:10102E000D320C320B320A320932112EECEF07F070
:10103E0001C001F002C002F003C003F004C004F0CE
:10104E0005C005F006C006F007C007F008C008F09E
:10105E00120003500410D8B437EF08F039EF08F03F
:10106E0042EF08F003500410D8A440EF08F042EF0E
:10107E0008F047EF08F0015048EC0BF094EF08F041
:10108E0020EE09F00350D9260450DA22DE50DE108D
:10109E00D8B454EF08F056EF08F071EF08F020EED8
:1010AE0009F00350D9260450DA2210EE03F0035053
:1010BE00E1260450E222DE50E65CE650800A096E1C
:1010CE00DE50800A0958D8B06FEF08F071EF08F0C3
:1010DE0094EF08F020EE03F00350D9260450DA22E4
:1010EE00DECF05F0DDCF06F003C0D9FF04C0DAFF76
:1010FE00DECF07F0DDCF08F005500724D96E06507D
:10110E000820DA6E01C0DFFF20EE03F00350D9266F
:10111E000450DA22DE2A000EDD221200000166A142
:10112E009BEF08F09DEF08F0A7EF08F013C00AF050
:10113E0014C00BF011C00CF012C00DF052EC0AF0FE
:10114E0016BEACEF08F0AEEF08F0B4EF08F015C025
:10115E001AF016C01BF0B8EF08F0000E1B6E000E52
:10116E001A6E000E196E000E186ECAEF08F0000E01
:10117E00026E200E016E11C003F012C004F030ECAE
:10118E0008F0184A192A1A50185C1950800A176E5E
:10119E001B50800A1758D8A0D7EF08F0D9EF08F0E7
:1011AE00BEEF08F0000166B1DFEF08F0E1EF08F0E6
:1011BE00EBEF08F013C00AF014C00BF011C00CF0E6
:1011CE0012C00DF052EC0AF013C001F014C002F080
:1011DE00CCEC0AF01A500124116E1B500220126E34
:1011EE0012003CEC0BF0FAEC0AF034EC09F035ECA2
:1011FE000BF043EC0BF029EC0BF0D6CF68F0D7CF09
:10120E0069F08A0E586E000E596E010E5A6E080E57
:10121E005B6E68C05CF069C05DF000EC0AF0040E15
:10122E00046E010E6EEC09F08A0E056E000E066E4F
:10123E0074EC0AF068C08AFF020E0001A86F040E5B
:10124E00A76FBA0EE82EFED7A72FFCD7A82FFAD776
:10125E0000F004EF09F015EF00F0000ED2EC09F0EB
:10126E00680E046EE40EE82EFED7042EFCD700D0D6
:10127E00030E0CEC0BF01A0E046EF80EE82EFED7D1
:10128E00042EFCD700D0030E0CEC0BF03A0E046EBD
:10129E00230EE82EFED7042EFCD700F0030E0CEC26
:1012AE000BF0020E0CEC0BF0020E0CEC0BF0080E19
:1012BE000CEC0BF0000E0CEC0BF00C0E0CEC0BF01F
:1012CE00000E0CEC0BF0060E0CEC0BF01200056E83
:1012DE000504D8A475EF09F077EF09F088EF09F04F
:1012EE0004507F0F086E08380F0B066E08500F0B58
:1012FE00076E06500CEC0BF007500CEC0BF0A0EF49
:10130E0009F0020E0518D8A48FEF09F091EF09F03D
:10131E00A0EF09F00450BF0F086E08380F0B066ED1
:10132E0008500F0B076E06500CEC0BF007500CEC30
:10133E000BF0120052C056F053C057F0000E0001D1
:10134E00616F000E606FBFEF09F050C03CF051C0EE
:10135E003DF0560E3E6E000E3F6E54C040F055C02E
:10136E0041F007EC04F03C50000160273D50612332
:10137E0056C0F6FF57C0F7FF0800F5500009D8A475
:10138E00CBEF09F0CDEF09F0ACEF09F060C050F0F3
:10139E0061C051F01200016E01A0D8EF09F0DAEF32
:1013AE0009F0DDEF09F08C88DEEF09F08C9801A2D0
:1013BE00E3EF09F0E5EF09F0E8EF09F08C8AE9EFC9
:1013CE0009F08C9A01A4EEEF09F0F0EF09F0F3EFBB
:1013DE0009F08C8CF4EF09F08C9C01A6F9EF09F062
:1013EE00FBEF09F0FEEF09F08C8EFFEF09F08C9EFB
:1013FE0012005C0E00019A6F000E9B6F58C09CF09D
:10140E0059C09DF0000EA06F000E9F6F000EA66FCC
:10141E00000EA56F9C0E506E000E516E5AC052F00B
:10142E005BC053F09A0E546E000E556EA1EC09F08F
:10143E0000019F515824D96EA0515920DA6E000E2A
:10144E00DF6E1200010E076E200E01180210D8B4C6
:10145E0033EF0AF035EF0AF04EEF0AF0F70E036E97
:10146E00FF0E046E01C005F002C006F00350052603
:10147E0004500622065009E1050E055CD8A04AEF7D
:10148E000AF04CEF0AF04EEF0AF0000E076E07C09E
:10149E0001F0026A1200000E106E000E0F6E63EF66
:1014AE000AF00EC001F0026A0CC003F00DC004F089
:1014BE0030EC08F00F4A102A0F500A24D96E105043
:1014CE000B20DA6EDF500E6E0E50D8A471EF0AF0BC
:1014DE0073EF0AF058EF0AF01200000E086E000EBD
:1014EE00076E85EF0AF007500524D96E08500620C6
:1014FE00DA6EDF50B0EC0AF0074A082A07500524CE
:10150E00D96E08500620DA6EDF50D8A491EF0AF09B
:10151E0093EF0AF07AEF0AF01200D00E036EFF0E70
:10152E00046E01C005F002C006F0035005260450FB
:10153E00062206500AE10A0E055CD8A0A9EF0AF0B1
:10154E00ACEF0AF0010EADEF0AF0000E016E026A6A
:10155E001200046E04500F0B026E0450F00B036E5B
:10156E008C8403380F0BD2EC09F08C86350EE82EE6
:10157E00FED700F08C960250D2EC09F08C86350E18
:10158E00E82EFED700F08C96120001C003F002C0C8
:10159E0004F0D4EF0AF0014A022A01C0D9FF02C0BA
:1015AE00DAFFDF50D8A4DEEF0AF0E0EF0AF0D2EF58
:1015BE000AF00350015C016E04500258026E1200D4
:1015CE0001500302F3CF05F0F4CF06F001500402F0
:1015DE00F350062602500302F350062605C001F012
:1015EE0006C002F01200000E8C6E000E8A6E8B90FA
:1015FE00000E7A6E000E0F015E6F000E5C6F000E15
:10160E00956E000E936E94901200036E8C940350A0
:10161E00D2EC09F08C86150E026EC60EE82EFED7A1
:10162E00022EFCD700D08C96120000EE60F03A0E1F
:10163E00EE6AE806FDE15E905E92000EF86E000125
:10164E00F8EF08F0D58ED59CD58AD598D596F80E9C
:10165E00D516FF0ED76EFA0ED66E1200000E0CECDB
:10166E000BF0010E0CEC0BF01200700ED312D350D7
:10167E00FC0B0209D36E1200F28EF28CF294F28AF7
:04168E001200120034
:020000040020DA
:08000000FFFFFFFFFFFFFFFF00
:020000040030CA
:0E00000000285E3CFF5381FF0FC00FE00F4051
:00000001FF
