:040000001FEF19F0E5
:10080000004672656375656E6369613A00252E3234
:0B0810006600696E66006E616E0000FD
:10081C00000E0001816F3EC084F03FC085F040C0E7
:10082C0086F041C087F087BF20EF04F01EEF04F084
:10083C0034EF04F0010E816F84C001F085C002F02A
:10084C0086C003F087C004F0BEEC18F001C084F041
:10085C0002C085F003C086F004C087F0000E0001D2
:10086C00836F000E826FB1C071F0B2C072F0815113
:10087C00D8B443EF04F045EF04F059EF04F0815184
:10088C00D8A44BEF04F04DEF04F053EF04F0000E3E
:10089C00676F2B0E666F57EF04F0000E676F2D0E0F
:1008AC00666F66C081F084C001F085C002F086C01E
:1008BC0003F087C004F065EC14F001040210D8A416
:1008CC006AEF04F06CEF04F09FEF04F0000181512B
:1008DC00D8B473EF04F075EF04F07EEF04F081C030
:1008EC0000F17107D8A07207000E836F010E826FA2
:1008FC00000E8225016E010E8321026E120E036E14
:10090C00080E046E81EC18F00001FD0E7127FF0E2D
:10091C0072233CC011F03DC012F0000E136E010E9C
:10092C00146E71C015F072C016F096EC16F00AEF4A
:10093C0009F084C001F085C002F086C003F087C0C6
:10094C0004F065EC14F001500210D8A4B0EF04F0E0
:10095C00B2EF04F0D2EF04F000018151D8B4B9EF3A
:10096C0004F0BBEF04F0C4EF04F081C000F1710798
:10097C00D8A07207000E836F010E826F000E8225C5
:10098C00016E010E8321026E160E036E080E046EAC
:10099C0081EC18F08AEF04F0000E0001886F000E55
:1009AC00896F800E8A6F3F0E8B6F000E706F000E7A
:1009BC006F6F84C001F085C002F086C003F087C061
:1009CC0004F0000E056E000E066E000E076E000E93
:1009DC00086EB5EC15F0D8B0F6EF04F0F8EF04F0B3
:1009EC00D7EF05F005EF05F073C088F074C089F0FF
:1009FC0075C08AF076C08BF000016F4B702B88C0ED
:100A0C0001F089C002F08AC003F08BC004F0000E24
:100A1C00056E000E066E200E076E410E086E6BEC16
:100A2C000BF001C073F002C074F003C075F004C089
:100A3C0076F000017351845D016E74518559026E1C
:100A4C0075518659036E76518759046E0DEC17F06B
:100A5C0004BE3CEF05F004500310021009E1020E35
:100A6C00015CD8A03CEF05F03EEF05F0FAEF04F086
:100A7C0073C01AF074C01BF075C01CF076C01DF06A
:100A8C0084C01EF085C01FF086C020F087C021F006
:100A9C00E3EC13F0D8A055EF05F057EF05F0FAEFA3
:100AAC0004F000018851845D016E89518559026EF4
:100ABC008A518659036E8B518759046E0DEC17F0D1
:100ACC0004BE76EF05F004500310021007E1020E8D
:100ADC00015CD8B074EF05F076EF05F0BEEF05F0D1
:100AEC0088C084F089C085F08AC086F08BC087F0FE
:100AFC00D7EF05F088C00FF089C010F08AC011F054
:100B0C008BC012F0000E136E000E146E200E156EBC
:100B1C00410E166E80EC0DF00FC088F010C089F0FD
:100B2C0011C08AF012C08BF000016F07D8A07007BB
:100B3C008851845D016E89518559026E8A5186599E
:100B4C00036E8B518759046E0DEC17F004BEBCEF8D
:100B5C0005F004500310021007E1020E015CD8B03E
:100B6C00BAEF05F0BCEF05F0BEEF05F076EF05F03F
:100B7C0084C01AF085C01BF086C01CF087C01DF025
:100B8C0088C01EF089C01FF08AC020F08BC021F0F5
:100B9C00E3EC13F0D8A0D5EF05F0D7EF05F080EF1C
:100BAC0005F042C069F069C06AF00001B4BFE1EF22
:100BBC0005F0E3EF05F0E9EF05F0B3C062F0B4C067
:100BCC0063F0EDEF05F0000E636F060E626F62C00E
:100BDC006DF063C06EF06D4B6E2B660E6A19D8A467
:100BEC00FAEF05F0FCEF05F01CEF06F070BF03EF19
:100BFC0006F001EF06F00FEF06F0000E886F000E06
:100C0C00896F800E8A6F3F0E8B6F000E706F000E17
:100C1C006F6F670E6919D8B416EF06F018EF06F06F
:100C2C001CEF06F06F516D2770516E23000E786F1C
:100C3C00000E776F84C079F085C07AF086C07BF0A7
:100C4C0087C07CF088C073F089C074F08AC075F0DE
:100C5C008BC076F0ADEF06F079C00FF07AC010F0D3
:100C6C007BC011F07CC012F088C013F089C014F066
:100C7C008AC015F08BC016F080EC0DF00FC028F078
:100C8C0010C029F011C02AF012C02BF0D8EC10F0D3
:100C9C0028C07DF029C07EF02AC07FF02BC080F0E8
:100CAC007DC001F07EC002F07FC003F080C004F074
:100CBC0060EC13F001C06BF002C06CF079C01AF05C
:100CCC007AC01BF07BC01CF07CC01DF07DC005F011
:100CDC007EC006F07FC007F080C008F088C001F02D
:100CEC0089C002F08AC003F08BC004F06BEC0BF0EF
:100CFC0001C01EF002C01FF003C020F004C021F0A0
:100D0C0019EC18F01AC079F01BC07AF01CC07BF0FB
:100D1C001DC07CF088C00FF089C010F08AC011F0A3
:100D2C008BC012F0000E136E000E146E200E156E9A
:100D3C00410E166E80EC0DF00FC088F010C089F0DB
:100D4C0011C08AF012C08BF00001774B782B6D51DB
:100D5C00775D7851800A436E6E51800A4358D8A053
:100D6C00BAEF06F0BCEF06F032EF06F088C001F0E7
:100D7C0089C002F08AC003F08BC004F0000E056E2F
:100D8C00000E066EA00E076E400E086E6BEC0BF09C
:100D9C0001C07DF002C07EF003C07FF004C080F083
:100DAC0079C01AF07AC01BF07BC01CF07CC01DF01F
:100DBC007DC01EF07EC01FF07FC020F080C021F0EF
:100DCC00E3EC13F0D8B0EDEF06F0EFEF06F0FAEF2E
:100DDC0006F0000E00017D6F000E7E6F000E7F6F1F
:100DEC00000E806F23EF07F079C001F07AC002F09B
:100DFC007BC003F07CC004F07DC005F07EC006F023
:100E0C007FC007F080C008F0B5EC15F0D8A011EF4A
:100E1C0007F013EF07F023EF07F000016BB119EFA8
:100E2C0007F01BEF07F023EF07F0000E7D6F000EAD
:100E3C007E6F000E7F6F000E806F84C001F085C046
:100E4C0002F086C003F087C004F07DC005F07EC0C0
:100E5C0006F07FC007F080C008F00BEC09F001C071
:100E6C0079F002C07AF003C07BF004C07CF079C04A
:100E7C001AF07AC01BF07BC01CF07CC01DF0000E79
:100E8C00056E000E066E200E076E410E086E73C0C6
:100E9C0001F074C002F075C003F076C004F06BEC86
:100EAC000BF001C01EF002C01FF003C020F004C004
:100EBC0021F0E3EC13F0D8A066EF07F068EF07F031
:100ECC0091EF07F000016F4B702B73C001F074C0F1
:100EDC0002F075C003F076C004F0000E056E000E33
:100EEC00066E200E076E410E086E6BEC0BF001C007
:100EFC0073F002C074F003C075F004C076F0660E97
:100F0C0000016A19D8A48DEF07F08FEF07F091EF6D
:100F1C0007F06D4B6E2B73C088F074C089F075C0F0
:100F2C008AF076C08BF06FC060F070C061F0000E7C
:100F3C000001686F000E656F000E646F000E786F15
:100F4C00000E776F8FEF08F079C00FF07AC010F0B9
:100F5C007BC011F07CC012F088C013F089C014F073
:100F6C008AC015F08BC016F080EC0DF00FC028F085
:100F7C0010C029F011C02AF012C02BF0D8EC10F0E0
:100F8C0028C07DF029C07EF02AC07FF02BC080F0F5
:100F9C007DC001F07EC002F07FC003F080C004F081
:100FAC0060EC13F002BEE6EF07F0025007E10A0E08
:100FBC00015CD8B0E4EF07F0E6EF07F0F6EF07F0CE
:100FCC007DC001F07EC002F07FC003F080C004F051
:100FDC0060EC13F001C06BF002C06CF0FBEF07F09B
:100FEC00000E00016C6F090E6B6F00016851D8A4E4
:100FFC0002EF08F004EF08F02CEF08F061BF0BEFE4
:10100C0008F009EF08F02CEF08F0000E8225D96EDD
:10101C00010E8321DA6E2E0EDF6E824B832B71074D
:10102C00D8A07207010E686F2CEF08F0000E822515
:10103C00D96E010E8321DA6E300EDF6E824B832B5C
:10104C007107D8A072076407D8A0650764516511B1
:10105C00D8A433EF08F035EF08F01CEF08F0000EC1
:10106C008225D96E010E8321DA6E6B51300FDF6E43
:10107C00824B832B7107D8A0720779C01AF07AC003
:10108C001BF07BC01CF07CC01DF07DC005F07EC049
:10109C0006F07FC007F080C008F088C001F089C05E
:1010AC0002F08AC003F08BC004F06BEC0BF001C0B3
:1010BC001EF002C01FF003C020F004C021F019EC98
:1010CC0018F01AC079F01BC07AF01CC07BF01DC060
:1010DC007CF088C00FF089C010F08AC011F08BC072
:1010EC0012F0000E136E000E146E200E156E410ED3
:1010FC00166E80EC0DF00FC088F010C089F011C096
:10110C008AF012C08BF000016007D8A06107774B02
:10111C00782B6D51775D7851800A436E6E51800A41
:10112C004358D8B09CEF08F09EEF08F0ACEF08F0F5
:10113C0083BFAAEF08F0835109E14B0E825DD8A062
:10114C00AAEF08F0ACEF08F0AAEF07F0000E786FEA
:10115C004F0E776F000E7725D96E010E7821DA6E5F
:10116C00000EDF6E000E436E010E446E8251435E24
:10117C008351445A77514324016E78514420026EB6
:10118C00000E036E010E046E82C005F083C006F0E3
:10119C00CAEC17F000018251775D826F8351785948
:1011AC00836F8151D8A4DDEF08F0E0EF08F0010E59
:1011BC00E1EF08F0000E776F786B8151D8B4E9EF4E
:1011CC0008F0EBEF08F0F6EF08F08207D8A08307E1
:1011DC00000E8225D96E010E8321DA6E81C0DFFFED
:1011EC007751715F7851725B3CC011F03DC012F0C9
:1011FC00000E8225136E010E8321146E71C015F042
:10120C0072C016F096EC16F012000450800B0D6EA6
:10121C00045004240F6E03AE16EF09F018EF09F01A
:10122C0019EF09F00F800F50D8B41FEF09F021EF20
:10123C0009F036EF09F00F28D8A427EF09F029EFB1
:10124C0009F031EF09F0000E016E000E026E000E77
:10125C00036E000E046E038E000E046E3EEF09F05A
:10126C00000E016E000E026E000E036E000E046E78
:10127C000850800B0E6E0D500E18D8B448EF09F0C4
:10128C004AEF09F04BEF09F00D8C085008240E6E54
:10129C0007AE53EF09F055EF09F056EF09F00E8049
:1012AC000E50D8B45CEF09F05EEF09F073EF09F063
:1012BC000E28D8A464EF09F066EF09F06EEF09F080
:1012CC00000E056E000E066E000E076E000E086E08
:1012DC00078E000E086E7BEF09F0000E056E000EF7
:1012EC00066E000E076E000E086E0F500E5CD8B026
:1012FC0082EF09F084EF09F0ABEF09F00DAC89EF48
:10130C0009F08BEF09F08DEF09F0800E0D1A0FC06C
:10131C0010F00EC00FF010C00EF001C010F005C0A0
:10132C0001F010C005F002C010F006C002F010C0B1
:10133C0006F003C010F007C003F010C007F004C0A3
:10134C0010F008C004F010C008F0000E106E0F5022
:10135C000EC009F00A6A095E000E0A5A0ABEC0EFF6
:10136C0009F00A5009E11A0E095CD8A0C0EF09F087
:10137C00C2EF09F0F9EF09F001500210031004104C
:10138C00D8A4CBEF09F0CEEF09F0010ECFEF09F0A6
:10139C00000E106E000E016E000E026E000E036E3B
:1013AC00000E046E0EC00FF002EF0AF010A0E1EF79
:1013BC0009F0E3EF09F0E9EF09F0D89010300109DA
:1013CC00106EEBEF09F0D890103201A0F0EF09F09D
:1013DC00F2EF09F0F3EF09F0108E0434043203320B
:1013EC00023201320F2A0E500F5CD8A000EF0AF027
:1013FC0002EF0AF0DCEF09F00DBC07EF0AF009EF81
:10140C000AF049EF0AF00F50D8A40FEF0AF011EFD1
:10141C000AF01BEF0AF0000E016E000E026E000EB9
:10142C00036E000E046E6AEF0BF005500126065099
:10143C000222075003220850042204A028EF0AF0CD
:10144C002AEF0AF0D6EF0AF010A02FEF0AF031EFD6
:10145C000AF037EF0AF0D89010300109106E39EF0E
:10146C000AF0D890103201A03EEF0AF040EF0AF0DB
:10147C0041EF0AF0108E043404320332023201328E
:10148C000F2AD6EF0AF00550015C0650025807509F
:10149C0003580450800A096E0850800A0958D8B0C5
:1014AC005AEF0AF05CEF0AF087EF0AF00150055C86
:1014BC00096E025006580A6E035007580B6E045002
:1014CC0008580C6EFF0E0924016EFF0E0A20026EE6
:1014DC00FF0E0B20036EFF0E0C20046E800E0D1AF7
:1014EC00106C1050D8A47DEF0AF07FEF0AF08FEF4C
:1014FC000AF0010E0126000E0222032204228FEFB5
:10150C000AF00550015E0650025A0750035A085063
:10151C00045A0150021003100410D8A498EF0AF0DA
:10152C009AEF0AF0CFEF0AF01050D8A4A0EF0AF00F
:10153C00A2EF0AF0CFEF0AF0000E016E000E026E61
:10154C00000E036E000E046E6AEF0BF0D89001369D
:10155C0002360336043610AEB6EF0AF0B8EF0AF0D6
:10156C00B9EF0AF0018010A0BEEF0AF0C0EF0AF04C
:10157C00C4EF0AF0D8801036C6EF0AF0D8901036B7
:10158C000F50D8B4CCEF0AF0CEEF0AF0CFEF0AF040
:10159C000F0603AED4EF0AF0D6EF0AF0ACEF0AF068
:1015AC00000E0E6E10AEDDEF0AF0DFEF0AF0F7EF73
:1015BC000AF010C009F07F0E0916D8B4E8EF0AF053
:1015CC00EAEF0AF0EEEF0AF0010E0E6EF7EF0AF0FA
:1015DC0001A0F3EF0AF0F5EF0AF0F7EF0AF0EAEFEB
:1015EC000AF00E50D8B4FDEF0AF0FFEF0AF02AEF24
:1015FC000BF0010E0126000E02220322042204A08D
:10160C000AEF0BF00CEF0BF02AEF0BF001C009F016
:10161C0002C00AF003C00BF004C00CF00C340C3206
:10162C000B320A32093209C001F00AC002F00BC0B9
:10163C0003F00CC004F00F28D8B427EF0BF029EFFF
:10164C000BF02AEF0BF00F2A0F28D8B430EF0BF069
:10165C0032EF0BF03AEF0BF00F50D8A438EF0BF041
:10166C003AEF0BF04CEF0BF0000E016E000E026E19
:10167C00000E036E000E046E0F50D8A448EF0BF052
:10168C004AEF0BF04CEF0BF0000E0D6E0FA051EF6C
:10169C000BF053EF0BF056EF0BF0038E57EF0BF0F4
:1016AC00039ED8900F30046E0DAE5FEF0BF061EF20
:1016BC000BF062EF0BF0048E01C001F002C002F0DF
:1016CC0003C003F004C004F012000450800B0D6E34
:1016DC0004500424136E03AE76EF0BF078EF0BF08E
:1016EC0079EF0BF013801350D8B47FEF0BF081EF30
:1016FC000BF094EF0BF01328D8A487EF0BF089EFC5
:10170C000BF091EF0BF0000E016E000E026E000E4E
:10171C00036E000E046E038E9CEF0BF0000E016E38
:10172C00000E026E000E036E000E046E0850800B4D
:10173C000D1A08500824126E07AEA7EF0BF0A9EF94
:10174C000BF0AAEF0BF012801250D8B4B0EF0BF0E4
:10175C00B2EF0BF0C5EF0BF01228D8A4B8EF0BF0DA
:10176C00BAEF0BF0C2EF0BF0000E056E000E066E1A
:10177C00000E076E000E086E078ECDEF0BF0000EFC
:10178C00056E000E066E000E076E000E086E1250EF
:10179C00D8B4D3EF0BF0D5EF0BF0DDEF0BF013500B
:1017AC00D8A4DBEF0BF0DDEF0BF0E7EF0BF0000E46
:1017BC00016E000E026E000E036E000E046E7FEFC3
:1017CC000DF007500102F3CF18F0F4CF19F01850B8
:1017DC000E6E0F6A106A116A1950146E156A166A29
:1017EC00176A06500202F3CF18F0F4CF19F0185014
:1017FC000E26000E0F221022112219501426000E54
:10180C0015221622172205500302F3CF18F0F4CF3D
:10181C0019F018500E26000E0F221022112219500A
:10182C001426000E15221622172210C011F00FC01C
:10183C0010F00EC00FF00E6A05500202F3CF18F034
:10184C00F4CF19F018500E2619500F22000E10224A
:10185C00000E112206500102F3CF18F0F4CF19F04C
:10186C0018500E2619500F22000E1022000E1122B5
:10187C0010C011F00FC010F00EC00FF00E6A055022
:10188C000102F3CF18F0F4CF19F018500E261950AE
:10189C000F22000E1022000E112207500202F3CF6D
:1018AC0018F0F4CF19F01850142619501522000E08
:1018BC001622000E172206500302F3CF18F0F4CFB5
:1018CC0019F01850142619501522000E1622000E6D
:1018DC00172207500302F3CF18F0F4CF19F0185069
:1018EC00096E19500A6E0B6A0C6A0BC00CF00AC018
:1018FC000BF009C00AF0096A095014260A50152287
:10190C000B5016220C5017220EC009F00FC00AF013
:10191C0010C00BF011C00CF0190E9AEF0CF0D8900F
:10192C000C320B320A320932E82E95EF0CF00950CA
:10193C0014260A5015220B5016220C50172210C0D8
:10194C0011F00FC010F00EC00FF00E6A125013C041
:10195C0009F00A6A0926000E0A22820E0924186E62
:10196C00FF0E0A20196ED0EF0CF0D89014361536F5
:10197C001636173611AEC5EF0CF0C7EF0CF0C8EFEA
:10198C000CF01480D8900E360F361036113618061F
:10199C00D8A0190616AED5EF0CF0D7EF0CF0BBEFB4
:1019AC000CF0000E126E11AEDEEF0CF0E0EF0CF04E
:1019BC0004EF0DF0FF0E0E14096EFF0E0F140A6EDD
:1019CC00FF0E10140B6E7F0E11140C6E09500A10C2
:1019DC000B100C10D8B4F5EF0CF0F7EF0CF0FBEF8C
:1019EC000CF0010E126E04EF0DF014A000EF0DF0D0
:1019FC0002EF0DF004EF0DF0F7EF0CF01250D8B42D
:101A0C000AEF0DF00CEF0DF030EF0DF0010E142677
:101A1C00000E15221622172217A017EF0DF019EF42
:101A2C000DF030EF0DF014C009F015C00AF016C01F
:101A3C000BF017C00CF00C340C320B320A3209329A
:101A4C0009C014F00AC015F00BC016F00CC017F04A
:101A5C00184A192A19BE3BEF0DF0195008E1182845
:101A6C00D8A03BEF0DF03DEF0DF047EF0DF0000E61
:101A7C00146E000E156E800E166E7F0E176E75EFBF
:101A8C000DF019BE54EF0DF0195006E11804D8B042
:101A9C0052EF0DF054EF0DF060EF0DF0000E146EE0
:101AAC00000E156E000E166E000E176E000E0D6EEB
:101ABC0075EF0DF018C013F0FF0E1416FF0E15166F
:101ACC007F0E1616000E171613A06FEF0DF071EFA8
:101ADC000DF072EF0DF0168ED8901330176E0D506E
:101AEC00171214C001F015C002F016C003F017C095
:101AFC0004F012001250800B1F6E12501224266E2E
:101B0C0011AE8BEF0DF08DEF0DF08EEF0DF02680FA
:101B1C002650D8B494EF0DF096EF0DF0ABEF0DF01E
:101B2C002628D8A49CEF0DF09EEF0DF0A6EF0DF03B
:101B3C00000E0F6E000E106E000E116E000E126E67
:101B4C00118E000E126EB3EF0DF0000E0F6E000E24
:101B5C00106E000E116E000E126E1650800B1F1AB6
:101B6C0016501624276E15AEBEEF0DF0C0EF0DF01B
:101B7C00C1EF0DF027802750D8B4C7EF0DF0C9EF97
:101B8C000DF0DEEF0DF02728D8A4CFEF0DF0D1EF3C
:101B9C000DF0D9EF0DF0000E136E000E146E000E4A
:101BAC00156E000E166E158E000E166EE6EF0DF00D
:101BBC00000E136E000E146E000E156E000E166ED7
:101BCC001350141015101610D8A4EFEF0DF0F1EF00
:101BDC000DF009EF0EF0000E0F6E000E106E000EE1
:101BEC00116E000E126E800E11127F0E12121F500B
:101BFC0012120FC00FF010C010F011C011F012C073
:101C0C0012F04CEF0FF02650D8A40FEF0EF011EF9E
:101C1C000EF01BEF0EF0000E0F6E000E106E000E8D
:101C2C00116E000E126E4CEF0FF0275026C017F0FD
:101C3C00186A175E000E185A7F0E1724206E000EBD
:101C4C001820216E0FC01BF010C01CF011C01DF02D
:101C5C0012C01EF0000E0F6E000E106E000E116EF4
:101C6C00000E126E000E226E000E236E000E246EFD
:101C7C00000E256E000E276E7CEF0EF02750D8B4A8
:101C8C004AEF0EF04CEF0EF063EF0EF0D8901B36CF
:101C9C001C361D361E36D8900F36103611361236BD
:101CAC0025AE5BEF0EF05DEF0EF05EEF0EF00F80E9
:101CBC00D890223623362436253613501B5C14500C
:101CCC001C5815501D5816501E58D8A070EF0EF009
:101CDC0072EF0EF07BEF0EF0258C13501B5E145040
:101CEC001C5A15501D5A16501E5A272A190E2764B5
:101CFC0082EF0EF084EF0EF044EF0EF01B501C1030
:101D0C001D101E10D8B48DEF0EF08FEF0EF0A7EF54
:101D1C000EF02280A7EF0EF0D8900F361036113649
:101D2C00123625AE9CEF0EF09EEF0EF09FEF0EF0EC
:101D3C000F80D89022362336243625362006D8A09C
:101D4C00210611AEACEF0EF0AEEF0EF092EF0EF0EE
:101D5C00000E276E25AEB5EF0EF0B7EF0EF0DBEFF1
:101D6C000EF0FF0E2214176EFF0E2314186EFF0ECA
:101D7C002414196E7F0E25141A6E17501810191092
:101D8C001A10D8B4CCEF0EF0CEEF0EF0D2EF0EF05E
:101D9C00010E276EDBEF0EF00FA0D7EF0EF0D9EF90
:101DAC000EF0DBEF0EF0CEEF0EF02750D8B4E1EFD3
:101DBC000EF0E3EF0EF007EF0FF0010E0F26000E02
:101DCC0010221122122212A0EEEF0EF0F0EF0EF004
:101DDC0007EF0FF00FC017F010C018F011C019F07A
:101DEC0012C01AF01A341A3219321832173217C0BC
:101DFC000FF018C010F019C011F01AC012F0204AE0
:101E0C00212A21BE12EF0FF0215008E12028D8A082
:101E1C0012EF0FF014EF0FF01FEF0FF0000E216E0A
:101E2C002068000E0F6E000E106E000E116E000E6C
:101E3C00126E21BE2CEF0FF0215006E12004D8B019
:101E4C002AEF0FF02CEF0FF03AEF0FF0000E216E8F
:101E5C00000E206E000E0F6E000E106E000E116E36
:101E6C00000E126E000E1F6E20C026F026A041EF51
:101E7C000FF043EF0FF046EF0FF0118E47EF0FF01E
:101E8C00119ED8902630126EFDEF0DF0120047C057
:101E9C00D9FF48C0DAFFDECFF6FFDDCFF7FF080031
:101EAC00F550250AD8A45DEF0FF05FEF0FF0C3EFEC
:101EBC0010F047C0D9FF48C0DAFFDE2A000EDD2241
:101ECC00000E0001B26F000EB16FB1C05FF0B369CC
:101EDC00B46947C0D9FF48C0DAFFDECFF6FFDDCFCB
:101EEC00F7FF0800F5502E0AD8A47FEF0FF081EF12
:101EFC000FF0EEEF0FF0000EB46F000EB36F47C093
:101F0C00D9FF48C0DAFFDE2A000EDD2247C0D9FF18
:101F1C0048C0DAFFDECFF6FFDDCFF7FF0800F55043
:101F2C002A0AD8A49CEF0FF09EEF0FF0BBEF0FF036
:101F3C0047C0D9FF48C0DAFFDE2A000EDD2249C0B7
:101F4C00D9FF4AC0DAFFDFCF4BF0020EDE26DFCF1F
:101F5C004CF0000EDD224BC0D9FF4CC0DAFFDECFB7
:101F6C00B3F0DDCFB4F0EEEF0FF047C0D9FF48C0AF
:101F7C00DAFFDECF07F0DDCF08F0BBEC12F007C0C4
:101F8C00B3F008C0B4F0D2EF0FF047C0D9FF48C08F
:101F9C00DAFFDE2A000EDD2247C0D9FF48C0DAFF87
:101FAC00DECFF6FFDDCFF7FF0800F5CF4BF0D00EFC
:101FBC004B244C6E4D6AFF0E4D224D5009E10A0E1A
:101FCC004C5CD8A0ECEF0FF0EEEF0FF0CBEF0FF076
:101FDC0047C0D9FF48C0DAFFDECF57F0DDCF58F04D
:101FEC0057C0F6FF58C0F7FF0800F5CF56F00BEFBF
:101FFC0010F0574A582A24EF10F06C0E566E24EF4E
:10200C0010F0000E566E24EF10F056504B6E4C6ACA
:10201C004C50000AD8B415EF10F007EF10F04B50ED
:10202C004C0AD8B4FFEF0FF02A0AD8B403EF10F023
:10203C000A0AD8B4FFEF0FF007EF10F057C0F6FF05
:10204C0058C0F7FF0800F550660AD8A430EF10F01E
:10205C0032EF10F0BAEF10F068EF10F049C0D9FF72
:10206C004AC0DAFFDFCF4BF0040EDE26DFCF4CF098
:10207C00000EDD224BC0D9FF4CC0DAFFDECF4EF094
:10208C00DECF4FF0DECF50F0DECF51F07DEF10F011
:10209C0049C0D9FF4AC0DAFFDFCF4BF0040EDE2671
:1020AC00DFCF4CF0000EDD224BC0D9FF4CC0DAFF65
:1020BC00DECF4EF0DECF4FF0DECF50F0DECF51F062
:1020CC007DEF10F056504B6E4C6A4C50000AD8B451
:1020DC0072EF10F07DEF10F04B504C0AD8B44EEF6D
:1020EC0010F0200AD8B434EF10F07DEF10F0010E90
:1020FC0057244B6E000E58204C6E47C0D9FF48C079
:10210C00DAFF4BC0DEFF4CC0DDFFA4EF10F045C082
:10211C003CF046C03DF04EC03EF04FC03FF050C0CA
:10212C0040F051C041F057C0F6FF58C0F7FF08000F
:10213C00F5CF42F00EEC04F0D7EF10F057C0F6FFDD
:10214C0058C0F7FF0800F5504B6E4C6A4C50000A13
:10215C00D8B4B3EF10F0BAEF10F04B50660AD8B405
:10216C008DEF10F0BAEF10F047C0D9FF48C0DAFF7E
:10217C00DE2A000EDD22D7EF10F047C0D9FF48C091
:10218C00DAFFDECFF6FFDDCFF7FF0800F550016E6A
:10219C00026A45C003F046C004F050EC15F0BAEFEB
:1021AC0010F01200A5C038F0A6C039F0A7C03AF064
:1021BC00A8C03BF028C038F029C039F02AC03AF04A
:1021CC002BC03BF0810E2C6EFF0E2D6E38C02EF006
:1021DC0039C02FF03AC030F03BC031F0180EFCEF94
:1021EC0010F0D890313230322F322E32E82EF7EFF9
:1021FC0010F02E502C24366E000E2D20376E37BE6C
:10220C0011EF11F0375009E1170E365CD8A011EF21
:10221C0011F013EF11F01DEF11F028C028F029C0B8
:10222C0029F02AC02AF02BC02BF0E0EF11F037BEBA
:10223C0022EF11F024EF11F094EF11F036C02CF0D6
:10224C00FF0E2D6EFF0E2E6E7F0E2F6E000E306E5B
:10225C002C6633EF11F03BEF11F0303430322F326B
:10226C002E322D322C2E2EEF11F02DC032F02EC02E
:10227C0033F02FC034F030C035F0325038142C6E9F
:10228C00335039142D6E34503A142E6E35503B1495
:10229C002F6E2C502D102E102F10D8A458EF11F09B
:1022AC005AEF11F05CEF11F013EF11F038C02CF075
:1022BC0039C02DF03AC02EF03BC02FF0200E6CEF41
:1022CC0011F0D8902F322E322D322C32E82E67EFAF
:1022DC0011F02C502D102E102F10D8B478EF11F0C7
:1022EC007AEF11F082EF11F0325038263350392248
:1022FC0034503A2235503B22321C2C6E331C2D6E3E
:10230C00341C2E6E351C2F6E2C5038162D50391651
:10231C002E503A162F503B16D8EF11F038C02CF037
:10232C0039C02DF03AC02EF03BC02FF0200EA4EF98
:10233C0011F0D8902F322E322D322C32E82E9FEF06
:10234C0011F02C502D102E102F10D8A4B0EF11F02E
:10235C00B2EF11F0BCEF11F0000E386E000E396EBA
:10236C00000E3A6E000E3B6ED8EF11F0D890383458
:10237C002C6E39342D6E3A342E6E3B342F6E2C501D
:10238C002D102E102F10D8B4CEEF11F0D0EF11F07D
:10239C00D8EF11F0000E386E000E396E800E3A6ECA
:1023AC00BF0E3B6E38C028F039C029F03AC02AF075
:1023BC003BC02BF01200096E0950D8B4E8EF11F0B5
:1023CC00EAEF11F00CEF12F004BEF1EF11F0EFEFA9
:1023DC0011F00CEF12F001C005F002C006F003C0C2
:1023EC0007F004C008F0051E061E071E081E052A6D
:1023FC00000E06220722082205C00BF006C00CF0C6
:10240C0007C00DF008C00EF014EF12F001C00BF075
:10241C0002C00CF003C00DF004C00EF0015002100D
:10242C0003100410D8A41DEF12F01FEF12F029EFC7
:10243C0012F0000E016E000E026E000E036E000E06
:10244C00046EBAEF12F0960E0A6E33EF12F00A2AEF
:10245C00D8900E320D320C320B32000E0B14056E6E
:10246C00000E0C14066E000E0D14076EFE0E0E14EC
:10247C00086E0550061007100810D8A448EF12F08B
:10248C004AEF12F02DEF12F058EF12F00A2A010E5B
:10249C000B26000E0C220D220E22D8900E320D327D
:1024AC000C320B32000E0B14056E000E0C14066E63
:1024BC00000E0D14076EFF0E0E14086E055006105C
:1024CC0007100810D8A46DEF12F06FEF12F04CEF5C
:1024DC0012F077EF12F00A06D8900B360C360D3648
:1024EC000E360DBE7CEF12F07EEF12F086EF12F07E
:1024FC00020E0A6084EF12F086EF12F071EF12F008
:10250C000AB08BEF12F08DEF12F08EEF12F00D9EE1
:10251C00D8900A320AC005F0066A076A086A05C034
:10252C0008F0076A066A056A05500B1206500C1271
:10253C0007500D1208500E120950D8B4A8EF12F023
:10254C00AAEF12F0B2EF12F004BEB1EF12F0AFEF3F
:10255C0012F0B2EF12F00E8E0BC001F00CC002F0B4
:10256C000DC003F00EC004F01200000E0F6E000E32
:10257C000E6E000E0D6E000E0C6EC7EF12F0074AB9
:10258C00082A07C0F6FF08C0F7FF0800F550200A1C
:10259C00D8B4D3EF12F0D5EF12F0C5EF12F007C09C
:1025AC00F6FF08C0F7FF0800F5CF09F0F70E092475
:1025BC000A6E0B6AFF0E0B220B5009E1050E0A5C2A
:1025CC00D8A0EBEF12F0EDEF12F0C5EF12F0F7EF31
:1025DC0012F0000E0D6E010E0C6E074A082A2CEF3D
:1025EC0013F007C0F6FF08C0F7FF0800F550096E9E
:1025FC000A6A0A50000AD8B406EF13F02CEF13F055
:10260C0009502B0AD8B4F3EF12F0060AD8B4EFEF46
:10261C0012F02CEF13F00EC001F00FC002F0000E00
:10262C00046E0A0E036E0CEC19F007C0F6FF08C01E
:10263C00F7FF0800F550015E000E025A300E01241F
:10264C000E6E000E02200F6EF3EF12F007C0F6FFB5
:10265C0008C0F7FF0800F5CF09F0D00E09240A6E68
:10266C000B6AFF0E0B220B5009E10A0E0A5CD8A074
:10267C0042EF13F044EF13F011EF13F00C500D1068
:10268C00D8A44BEF13F04DEF13F05BEF13F00EC02B
:10269C0009F00FC00AF0091E0A1E094A0A2A09C0CD
:1026AC0007F00AC008F05FEF13F00EC007F00FC080
:1026BC0008F01200033404340A6E0A50D8A469EFEF
:1026CC0013F06BEF13F075EF13F0000E016E000EAC
:1026DC00026E000E036E000E046EE2EF13F001C0EA
:1026EC0005F002C006F003C007F004C008F0200E8D
:1026FC0085EF13F0D8900832073206320532E82EF7
:10270C0080EF13F00550096E038EFF0E0116FF0EBD
:10271C000216FF0E0316000E0416960E0A5E0ABE73
:10272C009CEF13F09AEF13F0B2EF13F00A50800AFB
:10273C00970FD8B0A4EF13F0A6EF13F0A8EF13F097
:10274C006BEF13F0D89004320332023201320A3E9E
:10275C00A8EF13F0CAEF13F01F0E0A64B8EF13F0D2
:10276C00BAEF13F0C2EF13F06BEF13F0D890013601
:10277C000236033604360A060A50D8A4C8EF13F002
:10278C00CAEF13F0BCEF13F00950D8B4D0EF13F02C
:10279C00D2EF13F0DAEF13F0041E031E021E016CCD
:1027AC00000E02220322042201C001F002C002F03A
:1027BC0003C003F004C004F01200000E1A14226EC1
:1027CC00000E1B14236E800E1C14246E7F0E1D1421
:1027DC00256E2250231024102510D8A4F8EF13F0E6
:1027EC00FAEF13F002EF14F0000E1A6E000E1B6ECF
:1027FC00000E1C6E000E1D6E000E1E14226E000EBE
:10280C001F14236E800E2014246E7F0E2114256E4F
:10281C002250231024102510D8A417EF14F019EF10
:10282C0014F021EF14F0000E1E6E000E1F6E000E41
:10283C00206E000E216E1DAE26EF14F028EF14F062
:10284C0031EF14F01A6C1B1ED8B01B2A1C1ED8B00A
:10285C001C2A800E1D5621AE36EF14F038EF14F002
:10286C0041EF14F01E6C1F1ED8B01F2A201ED8B0CA
:10287C00202A800E2156000E1A1A000E1B1A000E6A
:10288C001C1A800E1D1A000E1E1A000E1F1A000EA6
:10289C00201A800E211A1E501A5C1F501B582050F3
:1028AC001C5821501D58D8B05EEF14F060EF14F096
:1028BC0063EF14F0D89064EF14F0D8801200A9C024
:1028CC000BF0AAC00CF0ABC00DF0ACC00EF001C008
:1028DC000BF002C00CF003C00DF004C00EF00BC0E6
:1028EC0005F00CC006F00DC007F00EC008F0180E75
:1028FC0085EF14F0D8900832073206320532E82EF4
:10290C0080EF14F00550096E0A6A09500A10D8A419
:10291C0092EF14F094EF14F0B4EF14F0D8900B3451
:10292C00056E0C34066E0D34076E0E34086E0550B1
:10293C00061007100810D8A4A6EF14F0A8EF14F096
:10294C00AEEF14F0000E026E020E016EE3EF14F007
:10295C00000E026E030E016EE3EF14F009280A104C
:10296C00D8A4BBEF14F0BDEF14F0DFEF14F00BC0E4
:10297C0005F00CC006F00DC007F00EC008F0090EF3
:10298C00D8900536063607360836E82EC6EF14F012
:10299C000550061007100810D8B4D7EF14F0DAEF72
:1029AC0014F0010EDBEF14F0000E016E026AE3EF7F
:1029BC0014F0000E026E040E016E1200000E376E43
:1029CC00000E366E000E396E000E386E9EA4F1EFBE
:1029DC0014F0F3EF14F0ECEF14F09E94BECF36F03D
:1029EC00BFCF37F09EA4FDEF14F0FFEF14F0F8EF1B
:1029FC0014F09E94BECF38F0BFCF39F03650385C0F
:102A0C002C6E375039582D6E2CC001F02DC002F0B1
:102A1C00036A046A000EE1EC11F001C00FF002C071
:102A2C0010F003C011F004C012F0000E136E240E4F
:102A3C00146E740E156E4A0E166E80EC0DF00FC0EF
:102A4C0032F010C033F011C034F012C035F0000E6B
:102A5C000F6E000E106E800E116E3F0E126E32C095
:102A6C0013F033C014F034C015F035C016F080EC00
:102A7C000DF00FC02EF010C02FF011C030F012C0AE
:102A8C0031F02EC028F02FC029F030C02AF031C010
:102A9C002BF0120003500410D8B457EF15F059EF77
:102AAC0015F062EF15F003500410D8A460EF15F088
:102ABC0062EF15F067EF15F0015059EC19F0B4EF17
:102ACC0015F020EE09F00350D9260450DA22DE501E
:102ADC00DE10D8B474EF15F076EF15F091EF15F019
:102AEC0020EE09F00350D9260450DA2210EE03F040
:102AFC000350E1260450E222DE50E65CE650800AE8
:102B0C00096EDE50800A0958D8B08FEF15F091EF9E
:102B1C0015F0B4EF15F020EE03F00350D926045055
:102B2C00DA22DECF05F0DDCF06F003C0D9FF04C0FA
:102B3C00DAFFDECF07F0DDCF08F005500724D96EA1
:102B4C0006500820DA6E01C0DFFF20EE03F00350C0
:102B5C00D9260450DA22DE2A000EDD221200000EE5
:102B6C000114096E000E02140A6E800E03140B6E13
:102B7C007F0E04140C6E09500A100B100C10D8A404
:102B8C00CAEF15F0CCEF15F0D4EF15F0000E016E76
:102B9C00000E026E000E036E000E046E000E051485
:102BAC00096E000E06140A6E800E07140B6E7F0E53
:102BBC0008140C6E09500A100B100C10D8A4E9EF75
:102BCC0015F0EBEF15F0F3EF15F0000E056E000E9F
:102BDC00066E000E076E000E086E055001180FE110
:102BEC00065002180CE10750031809E108500418AC
:102BFC00D8B403EF16F005EF16F008EF16F0D890E6
:102C0C0009EF16F0D880120052EC19F041EC19F0D3
:102C1C00A1EC18F0D3EC16F04BEC19F0010E046E8D
:102C2C00010E40EC17F0010E056E080E066E57EC07
:102C3C0016F0E4EC14F028C0ADF029C0AEF02AC0B8
:102C4C00AFF02BC0B0F0B50E00018E6F000E8F6F81
:102C5C000D0E906F080E916FADC092F0AEC093F058
:102C6C00AFC094F0B0C095F0A1EC17F0010E046E5B
:102C7C00020E40EC17F0B50E056E000E066E57EC0A
:102C8C0016F0030E0001A46F080EA36F770EE82E4A
:102C9C00FED7A32FFCD7A42FFAD71FEF16F000EF07
:102CAC0000F0000E0A6E000E096E77EF16F0095058
:102CBC000524076E0A500620086E07C0F6FF08C0F0
:102CCC00F7FFF86A070EF76403D00800F55005D03B
:102CDC00F6CFE1FFF7CFE2FFE750DAEC18F0094A44
:102CEC000A2A09500524076E0A500620086E07C0F0
:102CFC00F6FF08C0F7FFF86A070EF76403D0080068
:102D0C00F55005D0F6CFE1FFF7CFE2FFE750000911
:102D1C00D8A493EF16F095EF16F05DEF16F01200B5
:102D2C0016BE9BEF16F09DEF16F0A3EF16F015C034
:102D3C001AF016C01BF0A7EF16F0000E1B6E000E5B
:102D4C001A6E000E196E000E186EB9EF16F0000E0A
:102D5C00026E200E016E11C003F012C004F050EC94
:102D6C0015F0184A192A1A50185C1950800A176E57
:102D7C001B50800A1758D8A0C6EF16F0C8EF16F0F3
:102D8C00ADEF16F013C00AF014C00BF011C00CF02C
:102D9C0012C00DF05FEC18F01200000E73EC17F07F
:102DAC00680E046EE40EE82EFED7042EFCD700D07D
:102DBC00030E31EC19F01A0E046EF80EE82EFED745
:102DCC00042EFCD700D0030E31EC19F03A0E046E31
:102DDC00230EE82EFED7042EFCD700F0030E31ECA8
:102DEC0019F0020E31EC19F0020E31EC19F0080E4C
:102DFC0031EC19F0000E31EC19F00C0E31EC19F02D
:102E0C00000E31EC19F0060E31EC19F0120004BE74
:102E1C001CEF17F004500310021006E10104D8B0A7
:102E2C001AEF17F01CEF17F037EF17F001C005F091
:102E3C0002C006F003C007F004C008F0051E061E11
:102E4C00071E081E052A000E06220722082205C0AE
:102E5C0001F006C002F007C003F008C004F03FEF19
:102E6C0017F001C001F002C002F003C003F004C06F
:102E7C0004F01200056E0504D8A447EF17F049EFD3
:102E8C0017F05AEF17F004507F0F086E08380F0B2D
:102E9C00066E08500F0B076E065031EC19F00750F8
:102EAC0031EC19F072EF17F0020E0518D8A461EF8F
:102EBC0017F063EF17F072EF17F00450BF0F086EA6
:102ECC0008380F0B066E08500F0B076E065031ECCE
:102EDC0019F0075031EC19F01200016E01A079EFD6
:102EEC0017F07BEF17F07EEF17F08C887FEF17F061
:102EFC008C9801A284EF17F086EF17F089EF17F08A
:102F0C008C8A8AEF17F08C9A01A48FEF17F091EF4F
:102F1C0017F094EF17F08C8C95EF17F08C9C01A6A2
:102F2C009AEF17F09CEF17F09FEF17F08C8EA0EF35
:102F3C0017F08C9E1200920E0001966F000E976F88
:102F4C008EC098F08FC099F0000E9C6F000E9B6F96
:102F5C00000EA26F000EA16F980E596E000E5A6EE5
:102F6C0090C05BF091C05CF0960E5D6E000E5E6ED4
:102F7C00F2EC17F000019B518E25D96E9C518F21DC
:102F8C00DA6E000EDF6E120003C009F004C00AF006
:102F9C0001C007F002C008F0E4EF17F009C0D9FF38
:102FAC000AC0DAFFDF500B6E094A0A2A07C0D9FFA4
:102FBC0008C0DAFF0BC0DFFF074A082A0506D8A0B5
:102FCC000606052806E10628D8A4EFEF17F0F1EF66
:102FDC0017F0D4EF17F012005BC08CF05CC08DF0D2
:102FEC0006EF18F059C045F05AC046F08C0E476EEB
:102FFC00000E486E5DC049F05EC04AF04DEC0FF01B
:10300C008CC0F6FF8DC0F7FF0800F5500009D8A45E
:10301C0012EF18F014EF18F0F8EF17F0000E5A6ECC
:10302C00000E596E1200000E1E1A000E1F1A000E12
:10303C00201A800E211A1AC001F01BC002F01CC00D
:10304C0003F01DC004F01EC005F01FC006F020C028
:10305C0007F021C008F00BEC09F001C01AF002C017
:10306C001BF003C01CF004C01DF01200010E056E15
:10307C00200E01180210D8B446EF18F048EF18F0E3
:10308C005BEF18F0F70E0124036EFF0E0220046EA6
:10309C00045009E1050E035CD8A057EF18F059EF66
:1030AC0018F05BEF18F0000E056E05C001F0026A17
:1030BC001200000E106E000E0F6E70EF18F00EC0A6
:1030CC0001F0026A0CC003F00DC004F050EC15F0D6
:1030DC000F4A102A0F500A24D96E10500B20DA6EAA
:1030EC00DF500E6E0E50D8A47EEF18F080EF18F063
:1030FC0065EF18F0120003C005F004C006F001C023
:10310C0007F002C008F005C0F6FF06C0F7FF054A3D
:10311C00062A07C0D9FF08C0DAFF074A082A0800A8
:10312C00F5CFDFFFDF50D8A49EEF18F0A0EF18F01A
:10313C0089EF18F012000F015D959484CF0EBD1627
:10314C00BD50F00B0509BD6E59913F0ECD16CF0E3B
:10315C00CD16CD96CD94CD82CD90000EBF6E000EC7
:10316C00BE6E000ECF6E000ECE6E9E94CD80120001
:10317C000150021003100410D8B4C7EF18F0C9EFB7
:10318C0018F0D1EF18F0000E011A000E021A000E02
:10319C00031A800E041A01C001F002C002F003C031
:1031AC0003F004C004F01200046E04500F0B026E06
:1031BC000450F00B036E8C8403380F0B73EC17F078
:1031CC008C86350EE82EFED700F08C96025073ECF0
:1031DC0017F08C86350EE82EFED700F08C96120078
:1031EC00D00E0124036EFF0E0220046E04500AE17F
:1031FC000A0E035CD8A005EF19F008EF19F0010EC8
:10320C0009EF19F0000E016E026A12000150030260
:10321C00F3CF05F0F4CF06F001500402F35006266C
:10322C0002500302F350062605C001F006C002F05E
:10323C00120001EE00F0500EEE6AE806FDE100EE21
:10324C00A5F0240EEE6AE806FDE15F6A000EF86E4A
:10325C0000010AEF16F0036E8C94035073EC17F018
:10326C008C86150E026EC60EE82EFED7022EFCD7EB
:10327C0000D08C961200000E8C6E000E7A6E000E32
:10328C000F015E6F000E956E1200000E31EC19F0FE
:10329C00010E31EC19F01200700ED312D350FC0B4E
:0832AC000209D36E12001200AA
:020000040020DA
:08000000FFFFFFFFFFFFFFFF00
:020000040030CA
:0E00000000285E3CFF5381FF0FC00FE00F4051
:00000001FF
