:04000000D9EF3EF006
:107D6C00700ED312D350FC0B0209D36E12003F06D7
:107D7C005B4F666D7D077F67C0F9A4B0999282F85E
:107D8C008090000E8C6E000E7A6E000E0F015E6FEE
:107D9C005B915B935F915F93000E956E92809282E4
:107DAC009690969212007A0EF66E7D0EF76E000E7D
:107DBC00F86E00EE01F010EE14F00900F5CFEEFFB6
:107DCC00E550E150FAE1216A000145EF3FF0000E69
:107DDC001A6E16BEF6EF3EF0F4EF3EF0FCEF3EF0FE
:107DEC00156C161ED8B0162A010E1A6E18BE03EFAB
:107DFC003FF001EF3FF007EF3FF0176C181ED8B0C3
:107E0C00182A17501810D8B40EEF3FF010EF3FF0AF
:107E1C0034EF3FF0010E196E18EF3FF0D890173683
:107E2C001836192A18AE1DEF3FF01FEF3FF014EF74
:107E3C003FF01750155C18501658D8A028EF3FF09B
:107E4C002AEF3FF02EEF3FF01750155E1850165AE0
:107E5C00D89018321732192E1FEF3FF01A50D8B4A1
:107E6C003AEF3FF03CEF3FF040EF3FF0156C161E41
:107E7C00D8B0162A15C015F016C016F01200B6ECC4
:107E8C003EF0C7EC3EF021C015F0166A000E186EDD
:107E9C000A0E176EEDEC3EF01550206E21C015F059
:107EAC00166A000E186E0A0E176E9EEC3FF01550F7
:107EBC001F6E000E1E6E0B0E2024D96EDA6A000E99
:107ECC00DA22DF508C6E8D920B0E1D6E620EE82E38
:107EDC00FED71D2EFCD700D08D820B0E1F24D96E21
:107EEC00DA6A000EDA22DF508C6E8D900B0E1D6E4E
:107EFC00620EE82EFED71D2EFCD700D08D801E2AD8
:107F0C00F90E1E648CEF3FF08EEF3FF061EF3FF007
:107F1C00212A640E2118D8A496EF3FF098EF3FF079
:107F2C0049EF3FF0000E216E49EF3FF000EF00F0FB
:107F3C00000E1A6E18BEA7EF3FF0A5EF3FF0ADEFA5
:107F4C003FF0176C181ED8B0182A010E1A6E16BE08
:107F5C00B4EF3FF0B2EF3FF0BAEF3FF0156C161EE6
:107F6C00D8B0162A010E1A1A000E1C6E000E1B6ECB
:107F7C0017501810D8B4C5EF3FF0C7EF3FF0EFEF34
:107F8C003FF0010E196ECFEF3FF0D8901736183630
:107F9C00192A18AED4EF3FF0D6EF3FF0CBEF3FF0FD
:107FAC00D8901B361C361750155C18501658D8A094
:107FBC00E2EF3FF0E4EF3FF0E9EF3FF01750155ED2
:107FCC001850165A1B80D89018321732192ED6EF2B
:107FDC003FF01A50D8B4F5EF3FF0F7EF3FF0FBEF5E
:107FEC003FF01B6C1C1ED8B01C2A1BC015F01CC00B
:047FFC0016F0120069
:020000040020DA
:08000000FFFFFFFFFFFFFFFF00
:020000040030CA
:0E00000000285E3CFF5381FF0FC00FE00F4051
:00000001FF
