:04000000F5EF3EF0EA
:107DB000700ED312D350FC0B0209D36E12003F0693
:107DC0005B4F666D7D077F67C0F9A4B0999282F81A
:107DD0008090D8EC3EF008EC3FF08BEC3FF01CECD0
:107DE0003FF0EDEF3EF000EF00F0BE0EF66E7D0EC0
:107DF000F76E000EF86E00EE01F010EE14F00900C0
:107E0000F5CFEEFFE550E150FAE10001E9EF3EF079
:107E1000000E8C6E000E8A6E000E7A6E000E0F0140
:107E20005E6F000E5C6F5B915B93000E956E000EB3
:107E3000936E928092821200000E166E000E156EE6
:107E400080B025EF3FF027EF3FF046EF3FF080A0F6
:107E50002CEF3FF02EEF3FF027EF3FF0162A0A0EEF
:107E60001618D8A436EF3FF038EF3FF046EF3FF05A
:107E7000000E166E152A0A0E1518D8A442EF3FF010
:107E800044EF3FF046EF3FF0000E156E80A24BEF3F
:107E90003FF04DEF3FF07AEF3FF080B252EF3FF00E
:107EA00054EF3FF04DEF3FF016061550D8A45BEFAE
:107EB0003FF05DEF3FF067EF3FF01628D8A463EF87
:107EC0003FF065EF3FF067EF3FF0000E166E155084
:107ED000D8B46DEF3FF06FEF3FF07AEF3FF0162828
:107EE000D8A475EF3FF077EF3FF07AEF3FF0090E3F
:107EF000166E1506010E1624D96EDA6A000EDA2205
:107F0000DF508A6E0B0E1524D96EDA6A000EDA2263
:107F1000DF508C6E1200000E166E000E156E01C042
:107F20008AFF0BC08CFF80B098EF3FF09AEF3FF0D4
:107F3000B9EF3FF080A09FEF3FF0A1EF3FF09AEF45
:107F40003FF0162A0A0E1618D8A4A9EF3FF0ABEF9F
:107F50003FF0B9EF3FF0000E166E152A0A0E151805
:107F6000D8A4B5EF3FF0B7EF3FF0B9EF3FF0000E08
:107F7000156E80A2BEEF3FF0C0EF3FF0EDEF3FF097
:107F800080B2C5EF3FF0C7EF3FF0C0EF3FF01606FD
:107F90001550D8A4CEEF3FF0D0EF3FF0DAEF3FF02E
:107FA0001628D8A4D6EF3FF0D8EF3FF0DAEF3FF035
:107FB000000E166E1550D8B4E0EF3FF0E2EF3FF040
:107FC000EDEF3FF01628D8A4E8EF3FF0EAEF3FF0DE
:107FD000EDEF3FF0090E166E1506010E1624D96E50
:107FE000DA6A000EDA22DF508A6E0B0E1524D96E83
:107FF000DA6A000EDA22DF508C6E93EF3FF0120047
:020000040020DA
:08000000FFFFFFFFFFFFFFFF00
:020000040030CA
:0E00000000285E3CFF5381FF0FC00FE00F4051
:00000001FF
