:0400000015EF00F008
:100008000382F2A40AEF00F00CEF00F013EF00F007
:100018000B0ED76EDC0ED66EF294010E016E0392B3
:10002800110053EF00F05AEC00F049EC00F061ECDD
:1000380000F03BEC00F00150D8B425EF00F027EFBA
:1000480000F01FEF00F0022A0F0E0218D8A42FEFBD
:1000580000F031EF00F033EF00F0000E026E02C046
:100068008CFF000E016E1FEF00F015EF00F0D59E1B
:10007800D59CD59AD596D550F80B0409D56E0B0E9C
:10008800D76EDC0ED66ED58E1200000E8C6E000E6A
:100098007A6E000E0F015E6F000E956E1200026AF6
:1000A800016A03900392000117EF00F0700ED3125B
:1000B800D350FC0B0209D36E1200F28EF28CF2942C
:0400C800F28A1200A6
:020000040020DA
:08000000FFFFFFFFFFFFFFFF00
:020000040030CA
:0E00000000285E3CFF5381FF0FC00FE00F4051
:00000001FF
