:04000000ADEF3EF032
:107D1400700ED312D350FC0B0209D36E12003F062F
:107D24005B4F666D7D077F67C0F9A4B0999282F8B6
:107D34008090000E8C6E000E7A6E000E0F015E6F46
:107D44005B915B935F915F93000E956E928092823C
:107D5400969096921200220EF66E7D0EF76E000E2D
:107D6400F86E00EE01F010EE14F00900F5CFEEFF0E
:107D7400E550E150FAE1206A1F6A1E6A0001FEEF35
:107D84003EF01EC015F0166A000E186E0A0E176E2D
:107D940046EC3FF01550206E1EC015F0166A000E1A
:107DA400186E0A0E176E9EEC3FF015501F6E0B0EE8
:107DB4002024D96EDA6A000EDA22DF508C6E8D929E
:107DC4000B0E1D6E620EE82EFED71D2EFCD700D0C2
:107DD4008D820B0E1F24D96EDA6A000EDA22DF5070
:107DE4008C6E8D900B0E1D6E620EE82EFED71D2E2E
:107DF400FCD700D08D8012008AEC3EF09BEC3EF064
:107E040080B007EF3FF009EF3FF021EF3FF00EEFB6
:107E14003FF01E50C3EC3EF080A013EF3FF015EF8F
:107E24003FF00BEF3FF01E2A640E1E18D8A41DEF7E
:107E34003FF01FEF3FF021EF3FF0000E1E6E80A2D7
:107E440026EF3FF028EF3FF03FEF3FF02DEF3FF0FC
:107E54001E50C3EC3EF080B232EF3FF034EF3FF0FF
:107E64002AEF3FF01E061E28D8A43BEF3FF03DEF5B
:107E74003FF03FEF3FF0000E1E6E1E50C3EC3EF08D
:107E840002EF3FF000EF00F0000E1A6E16BE4FEF47
:107E94003FF04DEF3FF055EF3FF0156C161ED8B094
:107EA400162A010E1A6E18BE5CEF3FF05AEF3FF02F
:107EB40060EF3FF0176C181ED8B0182A175018102E
:107EC400D8B467EF3FF069EF3FF08DEF3FF0010E5C
:107ED400196E71EF3FF0D89017361836192A18AE7C
:107EE40076EF3FF078EF3FF06DEF3FF01750155C01
:107EF40018501658D8A081EF3FF083EF3FF087EF7A
:107F04003FF01750155E1850165AD8901832173291
:107F1400192E78EF3FF01A50D8B493EF3FF095EF55
:107F24003FF099EF3FF0156C161ED8B0162A15C015
:107F340015F016C016F01200000E1A6E18BEA7EF48
:107F44003FF0A5EF3FF0ADEF3FF0176C181ED8B02F
:107F5400182A010E1A6E16BEB4EF3FF0B2EF3FF0CE
:107F6400BAEF3FF0156C161ED8B0162A010E1A1A75
:107F7400000E1C6E000E1B6E17501810D8B4C5EFFF
:107F84003FF0C7EF3FF0EFEF3FF0010E196ECFEF78
:107F94003FF0D89017361836192A18AED4EF3FF0B0
:107FA400D6EF3FF0CBEF3FF0D8901B361C3617507E
:107FB400155C18501658D8A0E2EF3FF0E4EF3FF0FC
:107FC400E9EF3FF01750155E1850165A1B80D890F1
:107FD40018321732192ED6EF3FF01A50D8B4F5EFF5
:107FE4003FF0F7EF3FF0FBEF3FF01B6C1C1ED8B0E7
:0C7FF4001C2A1BC015F01CC016F0120067
:020000040020DA
:08000000FFFFFFFFFFFFFFFF00
:020000040030CA
:0E00000000285E3CFF5381FF0FC00FE00F4051
:00000001FF
