:0400000072EF19F092
:10080000004D43503A252E3166004C44523A252E75
:100810003166004C4D3A252E316600696E66006ED9
:10082000616E0000000E0001816F47C084F048C077
:1008300085F049C086F04AC087F087BF24EF04F0F6
:1008400022EF04F038EF04F0010E816F84C001F054
:1008500085C002F086C003F087C004F0F5EC18F004
:1008600001C084F002C085F003C086F004C087F0A8
:10087000000E0001836F000E826FC4C071F0C5C00E
:1008800072F08151D8B447EF04F049EF04F05DEF06
:1008900004F08151D8A44FEF04F051EF04F057EF6A
:1008A00004F0000E676F2B0E666F5BEF04F0000E16
:1008B000676F2D0E666F66C081F084C001F085C041
:1008C00002F086C003F087C004F091EC15F001043B
:1008D0000210D8A46EEF04F070EF04F0A3EF04F060
:1008E00000018151D8B477EF04F079EF04F082EF82
:1008F00004F081C000F17107D8A07207000E836F69
:10090000010E826F000E8225016E010E8321026EA0
:100910001B0E036E080E046EB5EC18F00001FD0E00
:100920007127FF0E722345C011F046C012F0000E71
:10093000136E010E146E71C015F072C016F0CAEC81
:1009400016F00EEF09F084C001F085C002F086C0F9
:1009500003F087C004F091EC15F001500210D8A408
:10096000B4EF04F0B6EF04F0D6EF04F000018151CB
:10097000D8B4BDEF04F0BFEF04F0C8EF04F081C0BD
:1009800000F17107D8A07207000E836F010E826F0D
:10099000000E8225016E010E8321026E1F0E036E72
:1009A000080E046EB5EC18F08EEF04F0000E000196
:1009B000886F000E896F800E8A6F3F0E8B6F000E5E
:1009C000706F000E6F6F84C001F085C002F086C0AA
:1009D00003F087C004F0000E056E000E066E000ED8
:1009E000076E000E086E75EC16F0D8B0FAEF04F042
:1009F000FCEF04F0DBEF05F009EF05F073C088F0C1
:100A000074C089F075C08AF076C08BF000016F4B1E
:100A1000702B88C014F089C015F08AC016F08BC006
:100A200017F0000E186E000E196E200E1A6E410E91
:100A30001B6E6FEC0BF014C073F015C074F016C091
:100A400075F017C076F000017351845D016E74512A
:100A50008559026E75518659036E76518759046E19
:100A600041EC17F004BE40EF05F0045003100210F3
:100A700009E1020E015CD8A040EF05F042EF05F05D
:100A8000FEEF04F073C02DF074C02EF075C02FF08F
:100A900076C030F084C031F085C032F086C033F0CB
:100AA00087C034F00FEC15F0D8A059EF05F05BEFDC
:100AB00005F0FEEF04F000018851845D016E89515C
:100AC0008559026E8A518659036E8B518759046E7F
:100AD00041EC17F004BE7AEF05F004500310021049
:100AE00007E1020E015CD8B078EF05F07AEF05F06F
:100AF000C2EF05F088C084F089C085F08AC086F016
:100B00008BC087F0DBEF05F088C001F089C002F0F0
:100B10008AC003F08BC004F0000E056E000E066E56
:100B2000200E076E410E086E84EC0DF001C088F0B7
:100B300002C089F003C08AF004C08BF000016F0787
:100B4000D8A070078851845D016E89518559026E65
:100B50008A518659036E8B518759046E41EC17F008
:100B600004BEC0EF05F004500310021007E1020EAE
:100B7000015CD8B0BEEF05F0C0EF05F0C2EF05F0A4
:100B80007AEF05F084C02DF085C02EF086C02FF0DE
:100B900087C030F088C031F089C032F08AC033F0AD
:100BA0008BC034F00FEC15F0D8A0D9EF05F0DBEFD7
:100BB00005F084EF05F04BC069F069C06AF00001F0
:100BC000C7BFE5EF05F0E7EF05F0EDEF05F0C6C0B4
:100BD00062F0C7C063F0F1EF05F0000E636F060E20
:100BE000626F62C06DF063C06EF06D4B6E2B660E6F
:100BF0006A19D8A4FEEF05F000EF06F020EF06F02A
:100C000070BF07EF06F005EF06F013EF06F0000ED9
:100C1000886F000E896F800E8A6F3F0E8B6F000EFB
:100C2000706F000E6F6F670E6919D8B41AEF06F077
:100C30001CEF06F020EF06F06F516D2770516E2308
:100C4000000E786F000E776F84C079F085C07AF05F
:100C500086C07BF087C07CF088C073F089C074F0D8
:100C60008AC075F08BC076F0B1EF06F079C001F064
:100C70007AC002F07BC003F07CC004F088C005F0AD
:100C800089C006F08AC007F08BC008F084EC0DF034
:100C900001C01AF002C01BF003C01CF004C01DF01C
:100CA00004EC12F01AC07DF01BC07EF01CC07FF077
:100CB0001DC080F07DC001F07EC002F07FC003F057
:100CC00080C004F08CEC14F001C06BF002C06CF03A
:100CD00079C03DF07AC03EF07BC03FF07CC040F070
:100CE0007DC018F07EC019F07FC01AF080C01BF0E4
:100CF00088C014F089C015F08AC016F08BC017F0B8
:100D00006FEC0BF014C041F015C042F016C043F078
:100D100017C044F04DEC18F03DC079F03EC07AF0B9
:100D20003FC07BF040C07CF088C001F089C002F079
:100D30008AC003F08BC004F0000E056E000E066E34
:100D4000200E076E410E086E84EC0DF001C088F095
:100D500002C089F003C08AF004C08BF00001774B19
:100D6000782B6D51775D7851800A4C6E6E51800AF8
:100D70004C58D8A0BEEF06F0C0EF06F036EF06F0F4
:100D800088C014F089C015F08AC016F08BC017F027
:100D9000000E186E000E196EA00E1A6E400E1B6E1D
:100DA0006FEC0BF014C07DF015C07EF016C07FF024
:100DB00017C080F079C02DF07AC02EF07BC02FF0E4
:100DC0007CC030F07DC031F07EC032F07FC033F0A7
:100DD00080C034F00FEC15F0D8B0F1EF06F0F3EF6F
:100DE00006F0FEEF06F0000E00017D6F000E7E6F34
:100DF000000E7F6F000E806F27EF07F079C001F0C3
:100E00007AC002F07BC003F07CC004F07DC005F026
:100E10007EC006F07FC007F080C008F075EC16F0C9
:100E2000D8A015EF07F017EF07F027EF07F0000144
:100E30006BB11DEF07F01FEF07F027EF07F0000E73
:100E40007D6F000E7E6F000E7F6F000E806F84C07E
:100E50002DF085C02EF086C02FF087C030F07DC009
:100E600031F07EC032F07FC033F080C034F00FEC40
:100E700009F02DC079F02EC07AF02FC07BF030C081
:100E80007CF079C02DF07AC02EF07BC02FF07CC0B2
:100E900030F0000E186E000E196E200E1A6E410E04
:100EA0001B6E73C014F074C015F075C016F076C0D8
:100EB00017F06FEC0BF014C031F015C032F016C013
:100EC00033F017C034F00FEC15F0D8A06AEF07F03C
:100ED0006CEF07F095EF07F000016F4B702B73C0BC
:100EE00014F074C015F075C016F076C017F0000E3F
:100EF000186E000E196E200E1A6E410E1B6E6FECEE
:100F00000BF014C073F015C074F016C075F017C064
:100F100076F0660E00016A19D8A491EF07F093EFFE
:100F200007F095EF07F06D4B6E2B73C088F074C01F
:100F300089F075C08AF076C08BF06FC060F070C029
:100F400061F0000E0001686F000E656F000E646FA7
:100F5000000E786F000E776F93EF08F079C001F004
:100F60007AC002F07BC003F07CC004F088C005F0BA
:100F700089C006F08AC007F08BC008F084EC0DF041
:100F800001C01AF002C01BF003C01CF004C01DF029
:100F900004EC12F01AC07DF01BC07EF01CC07FF084
:100FA0001DC080F07DC001F07EC002F07FC003F064
:100FB00080C004F08CEC14F002BEEAEF07F002509F
:100FC00007E10A0E015CD8B0E8EF07F0EAEF07F09E
:100FD000FAEF07F07DC001F07EC002F07FC003F0A1
:100FE00080C004F08CEC14F001C06BF002C06CF017
:100FF000FFEF07F0000E00016C6F090E6B6F000130
:101000006851D8A406EF08F008EF08F030EF08F0B8
:1010100061BF0FEF08F00DEF08F030EF08F0000EA1
:101020008225D96E010E8321DA6E2E0EDF6E824B81
:10103000832B7107D8A07207010E686F30EF08F09C
:10104000000E8225D96E010E8321DA6E300EDF6E1E
:10105000824B832B7107D8A072076407D8A065075D
:1010600064516511D8A437EF08F039EF08F020EF8C
:1010700008F0000E8225D96E010E8321DA6E6B51C5
:10108000300FDF6E824B832B7107D8A0720779C0B7
:101090003DF07AC03EF07BC03FF07CC040F07DC0A8
:1010A00018F07EC019F07FC01AF080C01BF088C015
:1010B00014F089C015F08AC016F08BC017F06FECE1
:1010C0000BF014C041F015C042F016C043F017C039
:1010D00044F04DEC18F03DC079F03EC07AF03FC0CE
:1010E0007BF040C07CF088C001F089C002F08AC06B
:1010F00003F08BC004F0000E056E000E066E200E8D
:10110000076E410E086E84EC0DF001C088F002C03D
:1011100089F003C08AF004C08BF000016007D8A0FA
:101120006107774B782B6D51775D7851800A4C6E53
:101130006E51800A4C58D8B0A0EF08F0A2EF08F02A
:10114000B0EF08F083BFAEEF08F0835109E14B0E1A
:10115000825DD8A0AEEF08F0B0EF08F0AEEF07F078
:10116000000E786F4F0E776F000E7725D96E010E47
:101170007821DA6E000EDF6E000E4C6E010E4D6EA1
:1011800082514C5E83514D5A77514C24016E7851F7
:101190004D20026E000E036E010E046E82C005F03B
:1011A00083C006F0FEEC17F000018251775D826F7C
:1011B00083517859836F8151D8A4E1EF08F0E4EFAF
:1011C00008F0010EE5EF08F0000E776F786B8151A3
:1011D000D8B4EDEF08F0EFEF08F0FAEF08F082076F
:1011E000D8A08307000E8225D96E010E8321DA6E06
:1011F00081C0DFFF7751715F7851725B45C011F09C
:1012000046C012F0000E8225136E010E8321146E6B
:1012100071C015F072C016F0CAEC16F01200305012
:10122000800B396E305030243B6E2FAE1AEF09F030
:101230001CEF09F01DEF09F03B803B50D8B423EFC1
:1012400009F025EF09F03AEF09F03B28D8A42BEF7D
:1012500009F02DEF09F035EF09F0000E2D6E000EAC
:101260002E6E000E2F6E000E306E2F8E000E306E22
:1012700042EF09F0000E2D6E000E2E6E000E2F6E46
:10128000000E306E3450800B3A6E39503A18D8B494
:101290004CEF09F04EEF09F04FEF09F0398C345064
:1012A00034243A6E33AE57EF09F059EF09F05AEF94
:1012B00009F03A803A50D8B460EF09F062EF09F0D3
:1012C00077EF09F03A28D8A468EF09F06AEF09F03F
:1012D00072EF09F0000E316E000E326E000E336EAA
:1012E000000E346E338E000E346E7FEF09F0000E68
:1012F000316E000E326E000E336E000E346E3B50B7
:101300003A5CD8B086EF09F088EF09F0AFEF09F04A
:1013100039AC8DEF09F08FEF09F091EF09F0800EF5
:10132000391A3BC03CF03AC03BF03CC03AF02DC00B
:101330003CF031C02DF03CC031F02EC03CF032C04A
:101340002EF03CC032F02FC03CF033C02FF03CC038
:1013500033F030C03CF034C030F03CC034F0000E0C
:101360003C6E3B503AC035F0366A355E000E365A58
:1013700036BEC4EF09F0365009E11A0E355CD8A02C
:10138000C4EF09F0C6EF09F0FDEF09F02D502E1063
:101390002F103010D8A4CFEF09F0D2EF09F0010ED2
:1013A000D3EF09F0000E3C6E000E2D6E000E2E6E77
:1013B000000E2F6E000E306E3AC03BF006EF0AF0C2
:1013C0003CA0E5EF09F0E7EF09F0EDEF09F0D89068
:1013D0003C3001093C6EEFEF09F0D8903C322DA073
:1013E000F4EF09F0F6EF09F0F7EF09F03C8E303436
:1013F00030322F322E322D323B2A3A503B5CD8A06D
:1014000004EF0AF006EF0AF0E0EF09F039BC0BEF49
:101410000AF00DEF0AF04DEF0AF03B50D8A413EF9D
:101420000AF015EF0AF01FEF0AF0000E2D6E000E05
:101430002E6E000E2F6E000E306E6EEF0BF03150E0
:101440002D2632502E2233502F223450302230A0FD
:101450002CEF0AF02EEF0AF0DAEF0AF03CA033EF9F
:101460000AF035EF0AF03BEF0AF0D8903C30010962
:101470003C6E3DEF0AF0D8903C322DA042EF0AF0CE
:1014800044EF0AF045EF0AF03C8E303430322F3210
:101490002E322D323B2ADAEF0AF031502D5C3250D9
:1014A0002E5833502F583050800A356E3450800AF1
:1014B0003558D8B05EEF0AF060EF0AF08BEF0AF013
:1014C0002D50315C356E2E503258366E2F503358B9
:1014D000376E30503458386EFF0E35242D6EFF0EA7
:1014E00036202E6EFF0E37202F6EFF0E3820306E06
:1014F000800E391A3C6C3C50D8A481EF0AF083EF7F
:101500000AF093EF0AF0010E2D26000E2E222F2254
:10151000302293EF0AF031502D5E32502E5A335064
:101520002F5A3450305A2D502E102F103010D8A46E
:101530009CEF0AF09EEF0AF0D3EF0AF03C50D8A4DB
:10154000A4EF0AF0A6EF0AF0D3EF0AF0000E2D6E1A
:10155000000E2E6E000E2F6E000E306E6EEF0BF032
:10156000D8902D362E362F3630363CAEBAEF0AF0F4
:10157000BCEF0AF0BDEF0AF02D803CA0C2EF0AF0EC
:10158000C4EF0AF0C8EF0AF0D8803C36CAEF0AF080
:10159000D8903C363B50D8B4D0EF0AF0D2EF0AF0E6
:1015A000D3EF0AF03B062FAED8EF0AF0DAEF0AF0DD
:1015B000B0EF0AF0000E3A6E3CAEE1EF0AF0E3EF56
:1015C0000AF0FBEF0AF03CC035F07F0E3516D8B4B8
:1015D000ECEF0AF0EEEF0AF0F2EF0AF0010E3A6ECD
:1015E000FBEF0AF02DA0F7EF0AF0F9EF0AF0FBEF9E
:1015F0000AF0EEEF0AF03A50D8B401EF0BF003EF27
:101600000BF02EEF0BF0010E2D26000E2E222F22B6
:10161000302230A00EEF0BF010EF0BF02EEF0BF09E
:101620002DC035F02EC036F02FC037F030C038F066
:101630003834383237323632353235C02DF036C094
:101640002EF037C02FF038C030F03B28D8B42BEF45
:101650000BF02DEF0BF02EEF0BF03B2A3B28D8B40C
:1016600034EF0BF036EF0BF03EEF0BF03B50D8A40D
:101670003CEF0BF03EEF0BF050EF0BF0000E2D6E39
:10168000000E2E6E000E2F6E000E306E3B50D8A452
:101690004CEF0BF04EEF0BF050EF0BF0000E396EED
:1016A0003BA055EF0BF057EF0BF05AEF0BF02F8EDE
:1016B0005BEF0BF02F9ED8903B30306E39AE63EF6E
:1016C0000BF065EF0BF066EF0BF0308E2DC02DF0B8
:1016D0002EC02EF02FC02FF030C030F01200175067
:1016E000800B206E17501724266E16AE7AEF0BF083
:1016F0007CEF0BF07DEF0BF026802650D8B483EF03
:101700000BF085EF0BF098EF0BF02628D8A48BEFA9
:101710000BF08DEF0BF095EF0BF0000E146E000E3A
:10172000156E000E166E000E176E168EA0EF0BF0E3
:10173000000E146E000E156E000E166E000E176E63
:101740001B50800B201A1B501B24256E1AAEABEFCA
:101750000BF0ADEF0BF0AEEF0BF025802550D8B4B9
:10176000B4EF0BF0B6EF0BF0C9EF0BF02528D8A4BF
:10177000BCEF0BF0BEEF0BF0C6EF0BF0000E186ED7
:10178000000E196E000E1A6E000E1B6E1A8ED1EF2F
:101790000BF0000E186E000E196E000E1A6E000E81
:1017A0001B6E2550D8B4D7EF0BF0D9EF0BF0E1EF5B
:1017B0000BF02650D8A4DFEF0BF0E1EF0BF0EBEFCE
:1017C0000BF0000E146E000E156E000E166E000E5D
:1017D000176E83EF0DF01A501402F3CF2BF0F4CFF5
:1017E0002CF02B50216E226A236A246A2C50276E1B
:1017F000286A296A2A6A19501502F3CF2BF0F4CF10
:101800002CF02B502126000E2222232224222C50A1
:101810002726000E282229222A2218501602F3CF4A
:101820002BF0F4CF2CF02B502126000E2222232265
:1018300024222C502726000E282229222A2223C0C7
:1018400024F022C023F021C022F0216A1850150292
:10185000F3CF2BF0F4CF2CF02B5021262C5022224A
:10186000000E2322000E242219501402F3CF2BF075
:10187000F4CF2CF02B5021262C502222000E2322B4
:10188000000E242223C024F022C023F021C022F025
:10189000216A18501402F3CF2BF0F4CF2CF02B5008
:1018A00021262C502222000E2322000E24221A5020
:1018B0001502F3CF2BF0F4CF2CF02B5027262C5011
:1018C0002822000E2922000E2A2219501602F3CFD8
:1018D0002BF0F4CF2CF02B5027262C502822000E72
:1018E0002922000E2A221A501602F3CF2BF0F4CF31
:1018F0002CF02B501C6E2C501D6E1E6A1F6A1EC0D1
:101900001FF01DC01EF01CC01DF01C6A1C502726B5
:101910001D5028221E5029221F502A2221C01CF0AF
:1019200022C01DF023C01EF024C01FF0190E9EEF30
:101930000CF0D8901F321E321D321C32E82E99EF67
:101940000CF01C5027261D5028221E5029221F5003
:101950002A2223C024F022C023F021C022F0216AD1
:10196000255026C01CF01D6A1C26000E1D22820E6A
:101970001C242B6EFF0E1D202C6ED4EF0CF0D89083
:101980002736283629362A3624AEC9EF0CF0CBEF9D
:101990000CF0CCEF0CF02780D8902136223623367D
:1019A00024362B06D8A02C0629AED9EF0CF0DBEF9D
:1019B0000CF0BFEF0CF0000E256E24AEE2EF0CF041
:1019C000E4EF0CF008EF0DF0FF0E21141C6EFF0E7B
:1019D00022141D6EFF0E23141E6E7F0E24141F6E24
:1019E0001C501D101E101F10D8B4F9EF0CF0FBEFA7
:1019F0000CF0FFEF0CF0010E256E08EF0DF027A0A4
:101A000004EF0DF006EF0DF008EF0DF0FBEF0CF01A
:101A10002550D8B40EEF0DF010EF0DF034EF0DF0AF
:101A2000010E2726000E282229222A222AA01BEF97
:101A30000DF01DEF0DF034EF0DF027C01CF028C0A5
:101A40001DF029C01EF02AC01FF01F341F321E32A5
:101A50001D321C321CC027F01DC028F01EC029F00A
:101A60001FC02AF02B4A2C2A2CBE3FEF0DF02C5021
:101A700008E12B28D8A03FEF0DF041EF0DF04BEF20
:101A80000DF0000E276E000E286E800E296E7F0E60
:101A90002A6E79EF0DF02CBE58EF0DF02C5006E1B8
:101AA0002B04D8B056EF0DF058EF0DF064EF0DF0A9
:101AB000000E276E000E286E000E296E000E2A6E94
:101AC000000E206E79EF0DF02BC026F0FF0E2716CA
:101AD000FF0E28167F0E2916000E2A1626A073EF79
:101AE0000DF075EF0DF076EF0DF0298ED8902630C1
:101AF0002A6E20502A1227C014F028C015F029C0E1
:101B000016F02AC017F012000450800B116E04501A
:101B10000424186E03AE8FEF0DF091EF0DF092EFED
:101B20000DF018801850D8B498EF0DF09AEF0DF022
:101B3000AFEF0DF01828D8A4A0EF0DF0A2EF0DF034
:101B4000AAEF0DF0000E016E000E026E000E036E85
:101B5000000E046E038E000E046EB7EF0DF0000E43
:101B6000016E000E026E000E036E000E046E085031
:101B7000800B111A08500824196E07AEC2EF0DF041
:101B8000C4EF0DF0C5EF0DF019801950D8B4CBEFAC
:101B90000DF0CDEF0DF0E2EF0DF01928D8A4D3EF42
:101BA0000DF0D5EF0DF0DDEF0DF0000E056E000E1F
:101BB000066E000E076E000E086E078E000E086E91
:101BC000EAEF0DF0000E056E000E066E000E076EB9
:101BD000000E086E0550061007100810D8A4F3EF89
:101BE0000DF0F5EF0DF00DEF0EF0000E016E000E92
:101BF000026E000E036E000E046E800E03127F0E46
:101C000004121150041201C001F002C002F003C01E
:101C100003F004C004F050EF0FF01850D8A413EFF5
:101C20000EF015EF0EF01FEF0EF0000E016E000E1D
:101C3000026E000E036E000E046E50EF0FF019508E
:101C400018C009F00A6A095E000E0A5A7F0E0924BC
:101C5000126E000E0A20136E01C00DF002C00EF0CD
:101C600003C00FF004C010F0000E016E000E026EF3
:101C7000000E036E000E046E000E146E000E156E44
:101C8000000E166E000E176E000E196E80EF0EF02D
:101C90001950D8B44EEF0EF050EF0EF067EF0EF083
:101CA000D8900D360E360F361036D89001360236E3
:101CB0000336043617AE5FEF0EF061EF0EF062EF01
:101CC0000EF00180D89014361536163617360550AA
:101CD0000D5C06500E5807500F5808501058D8A0E9
:101CE00074EF0EF076EF0EF07FEF0EF0178C0550CC
:101CF0000D5E06500E5A07500F5A0850105A192AF6
:101D0000190E196486EF0EF088EF0EF048EF0EF012
:101D10000D500E100F101010D8B491EF0EF093EF7D
:101D20000EF0ABEF0EF01480ABEF0EF0D890013652
:101D300002360336043617AEA0EF0EF0A2EF0EF017
:101D4000A3EF0EF00180D8901436153616361736EC
:101D50001206D8A0130603AEB0EF0EF0B2EF0EF0ED
:101D600096EF0EF0000E196E17AEB9EF0EF0BBEF46
:101D70000EF0DFEF0EF0FF0E1414096EFF0E1514B7
:101D80000A6EFF0E16140B6E7F0E17140C6E0950A0
:101D90000A100B100C10D8B4D0EF0EF0D2EF0EF0EA
:101DA000D6EF0EF0010E196EDFEF0EF001A0DBEFA3
:101DB0000EF0DDEF0EF0DFEF0EF0D2EF0EF0195067
:101DC000D8B4E5EF0EF0E7EF0EF00BEF0FF0010ED9
:101DD0000126000E02220322042204A0F2EF0EF0DC
:101DE000F4EF0EF00BEF0FF001C009F002C00AF0A3
:101DF00003C00BF004C00CF00C340C320B320A326E
:101E0000093209C001F00AC002F00BC003F00CC097
:101E100004F0124A132A13BE16EF0FF0135008E114
:101E20001228D8A016EF0FF018EF0FF023EF0FF0E5
:101E3000000E136E1268000E016E000E026E000E90
:101E4000036E000E046E13BE30EF0FF0135006E168
:101E50001204D8B02EEF0FF030EF0FF03EEF0FF07E
:101E6000000E136E000E126E000E016E000E026E5A
:101E7000000E036E000E046E000E116E12C018F0FC
:101E800018A045EF0FF047EF0FF04AEF0FF0038E69
:101E90004BEF0FF0039ED8901830046E01EF0EF058
:101EA000120050C0D9FF51C0DAFFDECFF6FFDDCF00
:101EB000F7FF0800F550250AD8A461EF0FF063EF93
:101EC0000FF0C8EF10F050C0D9FF51C0DAFFDE2A82
:101ED000000EDD22000E0001C56F000EC46FC4C0ED
:101EE000C8F0C669C76950C0D9FF51C0DAFFDECF5C
:101EF000F6FFDDCFF7FF0800F5502E0AD8A483EFD8
:101F00000FF085EF0FF0F2EF0FF0000EC76F000E2D
:101F1000C66F50C0D9FF51C0DAFFDE2A000EDD22A5
:101F200050C0D9FF51C0DAFFDECFF6FFDDCFF7FF9B
:101F30000800F5502A0AD8A4A0EF0FF0A2EF0FF086
:101F4000BFEF0FF050C0D9FF51C0DAFFDE2A000EFC
:101F5000DD2252C0D9FF53C0DAFFDFCF54F0020EAA
:101F6000DE26DFCF55F0000EDD2254C0D9FF55C06C
:101F7000DAFFDECFC6F0DDCFC7F0F2EF0FF050C0D2
:101F8000D9FF51C0DAFFDECF07F0DDCF08F0E7EC74
:101F900013F007C0C6F008C0C7F0D6EF0FF050C06E
:101FA000D9FF51C0DAFFDE2A000EDD2250C0D9FF72
:101FB00051C0DAFFDECFF6FFDDCFF7FF0800F5CF27
:101FC00054F0D00E5424556E566AFF0E56225650C9
:101FD00009E10A0E555CD8A0F0EF0FF0F2EF0FF018
:101FE000CFEF0FF050C0D9FF51C0DAFFDECF95F030
:101FF000DDCF96F095C0F6FF96C0F7FF0800F5CF4D
:1020000094F00FEF10F0954B962B29EF10F06C0E1B
:10201000946F29EF10F0000E946F29EF10F000017B
:102020009451546E556A5550000AD8B41AEF10F006
:102030000BEF10F054504C0AD8B403EF10F02A0AFA
:10204000D8B407EF10F00A0AD8B403EF10F00BEF82
:1020500010F095C0F6FF96C0F7FF0800F550660A2D
:10206000D8A435EF10F037EF10F0BFEF10F06DEFA0
:1020700010F052C0D9FF53C0DAFFDFCF54F0040E86
:10208000DE26DFCF55F0000EDD2254C0D9FF55C04B
:10209000DAFFDECF8CF0DECF8DF0DECF8EF0DECF3C
:1020A0008FF082EF10F052C0D9FF53C0DAFFDFCFBC
:1020B00054F0040EDE26DFCF55F0000EDD2254C0B2
:1020C000D9FF55C0DAFFDECF8CF0DECF8DF0DECF4A
:1020D0008EF0DECF8FF082EF10F09451546E556A7F
:1020E0005550000AD8B477EF10F082EF10F054503A
:1020F0004C0AD8B453EF10F0200AD8B439EF10F0DE
:1021000082EF10F0010E9525546E000E9621556E4B
:1021100050C0D9FF51C0DAFF54C0DEFF55C0DDFF0B
:10212000A9EF10F04EC045F04FC046F08CC047F00C
:102130008DC048F08EC049F08FC04AF095C0F6FFC0
:1021400096C0F7FF0800F5CF4BF012EC04F0DCEF7F
:1021500010F095C0F6FF96C0F7FF0800F550546EDA
:10216000556A5550000AD8B4B8EF10F0BFEF10F020
:102170005450660AD8B492EF10F0BFEF10F050C080
:10218000D9FF51C0DAFFDE2A000EDD22DCEF10F0AD
:1021900050C0D9FF51C0DAFFDECFF6FFDDCFF7FF29
:1021A0000800F550016E026A4EC003F04FC004F003
:1021B00010EC16F0BFEF10F01200B9EC19F093EC30
:1021C00019F007EC17F0B2EC19F0A3EC19F0000EBF
:1021D000186E000E196EA00E1A6E3B0E1B6E0C0EC2
:1021E0002DEC19F001C006F002C007F0086A096A78
:1021F000000E0DEC13F006C014F007C015F008C077
:1022000016F009C017F06FEC0BF014C0ACF015C05D
:10221000ADF016C0AEF017C0AFF0ACC014F0ADC05A
:1022200015F0AEC016F0AFC017F0000E186E000E1D
:10223000196EC80E1A6E420E1B6E6FEC0BF014C0B6
:10224000C0F015C0C1F016C0C2F017C0C3F0000E38
:10225000316E000E326E000E336EBF0E346E000E05
:10226000186E000E196EA00E1A6E3B0E1B6E0A0E33
:102270002DEC19F001C006F002C007F0086A096AE7
:10228000000E0DEC13F006C014F007C015F008C0E6
:1022900016F009C017F06FEC0BF014C02DF015C04C
:1022A0002EF016C02FF017C030F00FEC09F02DC043
:1022B000ACF02EC0ADF02FC0AEF030C0AFF0ACC06F
:1022C00014F0ADC015F0AEC016F0AFC017F0000EA0
:1022D000186E000E196EC80E1A6E420E1B6E6FEC51
:1022E0000BF014C0BCF015C0BDF016C0BEF017C096
:1022F000BFF0080E2DEC19F001C006F002C007F087
:10230000086A096A000E0DEC13F006C014F007C04D
:1023100015F008C016F009C017F0000E186E000E78
:10232000196EA00E1A6E3B0E1B6E6FEC0BF014C0F4
:10233000B8F015C0B9F016C0BAF017C0BBF0C90E9E
:102340000001976F000E986F130E996F080E9A6F29
:10235000C0C09BF0C1C09CF0C2C09DF0C3C09EF045
:10236000D5EC17F0010E046E010E74EC17F0C90ED7
:10237000056E000E066ED5EC18F0C90E0001976FC1
:10238000000E986F010E996F080E9A6FBCC09BF0FB
:10239000BDC09CF0BEC09DF0BFC09EF0D5EC17F054
:1023A000090E046E010E74EC17F0C90E056E000ED6
:1023B000066ED5EC18F0C90E0001976F000E986FED
:1023C0000A0E996F080E9A6FB8C09BF0B9C09CF0C6
:1023D000BAC09DF0BBC09EF0D5EC17F0010E046EA4
:1023E000020E74EC17F0C90E056E000E066ED5ECE9
:1023F00018F0340E5F6EF20EE82EFED75F2EFCD77B
:10240000E7EF10F000EF00F0B0C02AF0B1C02BF001
:10241000B2C02CF0B3C02DF01AC02AF01BC02BF0B4
:102420001CC02CF01DC02DF0810E1E6EFF0E1F6E05
:102430002AC020F02BC021F02CC022F02DC023F0A8
:10244000180E28EF12F0D890233222322132203297
:10245000E82E23EF12F020501E24286E000E1F20BD
:10246000296E29BE3DEF12F0295009E1170E285CB4
:10247000D8A03DEF12F03FEF12F049EF12F01AC072
:102480001AF01BC01BF01CC01CF01DC01DF00CEF8F
:1024900013F029BE4EEF12F050EF12F0C0EF12F021
:1024A00028C01EF0FF0E1F6EFF0E206E7F0E216EE5
:1024B000000E226E1E665FEF12F067EF12F02234FC
:1024C0002232213220321F321E2E5AEF12F01FC04C
:1024D00024F020C025F021C026F022C027F024508F
:1024E0002A141E6E25502B141F6E26502C14206E9D
:1024F00027502D14216E1E501F1020102110D8A41B
:1025000084EF12F086EF12F088EF12F03FEF12F036
:102510002AC01EF02BC01FF02CC020F02DC021F0CF
:10252000200E98EF12F0D890213220321F321E3246
:10253000E82E93EF12F01E501F1020102110D8B477
:10254000A4EF12F0A6EF12F0AEEF12F024502A26FC
:1025500025502B2226502C2227502D22241C1E6E63
:10256000251C1F6E261C206E271C216E1E502A164D
:102570001F502B1620502C1621502D1604EF13F04F
:102580002AC01EF02BC01FF02CC020F02DC021F05F
:10259000200ED0EF12F0D890213220321F321E329E
:1025A000E82ECBEF12F01E501F1020102110D8A4DF
:1025B000DCEF12F0DEEF12F0E8EF12F0000E2A6E00
:1025C000000E2B6E000E2C6E000E2D6E04EF13F01D
:1025D000D8902A341E6E2B341F6E2C34206E2D346E
:1025E000216E1E501F1020102110D8B4FAEF12F0E7
:1025F000FCEF12F004EF13F0000E2A6E000E2B6EAB
:10260000800E2C6EBF0E2D6E2AC01AF02BC01BF050
:102610002CC01CF02DC01DF012000E6E0E50D8B450
:1026200014EF13F016EF13F038EF13F009BE1DEF9F
:1026300013F01BEF13F038EF13F006C00AF007C0D9
:102640000BF008C00CF009C00DF00A1E0B1E0C1E8A
:102650000D1E0A2A000E0B220C220D220AC010F0B9
:102660000BC011F00CC012F00DC013F040EF13F0CE
:1026700006C010F007C011F008C012F009C013F036
:102680000650071008100910D8A449EF13F04BEFBB
:1026900013F055EF13F0000E066E000E076E000EDD
:1026A000086E000E096EE6EF13F0960E0F6E5FEFE8
:1026B00013F00F2AD8901332123211321032000E5A
:1026C00010140A6E000E11140B6E000E12140C6E14
:1026D000FE0E13140D6E0A500B100C100D10D8A422
:1026E00074EF13F076EF13F059EF13F084EF13F05B
:1026F0000F2A010E1026000E112212221322D8904A
:102700001332123211321032000E10140A6E000E03
:1027100011140B6E000E12140C6EFF0E13140D6EBE
:102720000A500B100C100D10D8A499EF13F09BEF6A
:1027300013F078EF13F0A3EF13F00F06D8901036D4
:1027400011361236133612BEA8EF13F0AAEF13F0AB
:10275000B2EF13F0020E0F60B0EF13F0B2EF13F010
:102760009DEF13F00FB0B7EF13F0B9EF13F0BAEF1E
:1027700013F0129ED8900F320FC00AF00B6A0C6A49
:102780000D6A0AC00DF00C6A0B6A0A6A0A50101230
:102790000B5011120C5012120D5013120E50D8B4CF
:1027A000D4EF13F0D6EF13F0DEEF13F009BEDDEF38
:1027B00013F0DBEF13F0DEEF13F0138E10C006F012
:1027C00011C007F012C008F013C009F01200000E8B
:1027D0000F6E000E0E6E000E0D6E000E0C6EF3EFFF
:1027E00013F0074A082A07C0F6FF08C0F7FF0800E1
:1027F000F550200AD8B4FFEF13F001EF14F0F1EF19
:1028000013F007C0F6FF08C0F7FF0800F5CF09F086
:10281000F70E09240A6E0B6AFF0E0B220B5009E11A
:10282000050E0A5CD8A017EF14F019EF14F0F1EFC1
:1028300013F023EF14F0000E0D6E010E0C6E074A1C
:10284000082A58EF14F007C0F6FF08C0F7FF080089
:10285000F550096E0A6A0A50000AD8B432EF14F033
:1028600058EF14F009502B0AD8B41FEF14F0060AE1
:10287000D8B41BEF14F058EF14F00EC001F00FC0E5
:1028800002F0000E046E0A0E036E5FEC19F007C032
:10289000F6FF08C0F7FF0800F550015E000E025A6F
:1028A000300E01240E6E000E02200F6E1FEF14F08A
:1028B00007C0F6FF08C0F7FF0800F5CF09F0D00EFB
:1028C00009240A6E0B6AFF0E0B220B5009E10A0E57
:1028D0000A5CD8A06EEF14F070EF14F03DEF14F026
:1028E0000C500D10D8A477EF14F079EF14F087EFA7
:1028F00014F00EC009F00FC00AF0091E0A1E094AA2
:102900000A2A09C007F00AC008F08BEF14F00EC0C5
:1029100007F00FC008F01200033404340A6E0A50A6
:10292000D8A495EF14F097EF14F0A1EF14F0000E77
:10293000016E000E026E000E036E000E046E0EEFAE
:1029400015F001C005F002C006F003C007F004C096
:1029500008F0200EB1EF14F0D8900832073206329A
:102960000532E82EACEF14F00550096E038EFF0E11
:102970000116FF0E0216FF0E0316000E0416960E29
:102980000A5E0ABEC8EF14F0C6EF14F0DEEF14F0D2
:102990000A50800A970FD8B0D0EF14F0D2EF14F09D
:1029A000D4EF14F097EF14F0D890043203320232CF
:1029B00001320A3ED4EF14F0F6EF14F01F0E0A6451
:1029C000E4EF14F0E6EF14F0EEEF14F097EF14F0EC
:1029D000D89001360236033604360A060A50D8A4C7
:1029E000F4EF14F0F6EF14F0E8EF14F00950D8B457
:1029F000FCEF14F0FEEF14F006EF15F0041E031EBA
:102A0000021E016C000E02220322042201C001F00A
:102A100002C002F003C003F004C004F01200000E74
:102A20002D14356E000E2E14366E800E2F14376E58
:102A30007F0E3014386E3550361037103810D8A449
:102A400024EF15F026EF15F02EEF15F0000E2D6E89
:102A5000000E2E6E000E2F6E000E306E000E311422
:102A6000356E000E3214366E800E3314376E7F0EC4
:102A70003414386E3550361037103810D8A443EF60
:102A800015F045EF15F04DEF15F0000E316E000E0C
:102A9000326E000E336E000E346E30AE52EF15F013
:102AA00054EF15F05DEF15F02D6C2E1ED8B02E2AC8
:102AB0002F1ED8B02F2A800E305634AE62EF15F09C
:102AC00064EF15F06DEF15F0316C321ED8B0322A7C
:102AD000331ED8B0332A800E3456000E2D1A000E45
:102AE0002E1A000E2F1A800E301A000E311A000E08
:102AF000321A000E331A800E341A31502D5C3250C7
:102B00002E5833502F5834503058D8B08AEF15F023
:102B10008CEF15F08FEF15F0D89090EF15F0D8806E
:102B20001200B4C00BF0B5C00CF0B6C00DF0B7C0C9
:102B30000EF001C00BF002C00CF003C00DF004C099
:102B40000EF00BC005F00CC006F00DC007F00EC073
:102B500008F0180EB1EF15F0D8900832073206329F
:102B60000532E82EACEF15F00550096E0A6A0950DF
:102B70000A10D8A4BEEF15F0C0EF15F0E0EF15F085
:102B8000D8900B34056E0C34066E0D34076E0E347F
:102B9000086E0550061007100810D8A4D2EF15F0E3
:102BA000D4EF15F0DAEF15F0000E026E020E016E92
:102BB0000FEF16F0000E026E030E016E0FEF16F00F
:102BC00009280A10D8A4E7EF15F0E9EF15F00BEF8C
:102BD00016F00BC005F00CC006F00DC007F00EC0DB
:102BE00008F0090ED8900536063607360836E82E66
:102BF000F2EF15F00550061007100810D8B403EFD7
:102C000016F006EF16F0010E07EF16F0000E016E3B
:102C1000026A0FEF16F0000E026E040E016E120033
:102C200003500410D8B417EF16F019EF16F022EF86
:102C300016F003500410D8A420EF16F022EF16F07F
:102C400027EF16F00150C0EC19F074EF16F020EEEB
:102C500009F00350D9260450DA22DE50DE10D8B431
:102C600034EF16F036EF16F051EF16F020EE09F0C3
:102C70000350D9260450DA2210EE03F00350E12667
:102C80000450E222DE50E65CE650800A096EDE5017
:102C9000800A0958D8B04FEF16F051EF16F074EFD4
:102CA00016F020EE03F00350D9260450DA22DECFCE
:102CB00005F0DDCF06F003C0D9FF04C0DAFFDECF98
:102CC00007F0DDCF08F005500724D96E0650082024
:102CD000DA6E01C0DFFF20EE03F00350D926045066
:102CE000DA22DE2A000EDD221200000E0114096E27
:102CF000000E02140A6E800E03140B6E7F0E041475
:102D00000C6E09500A100B100C10D8A48AEF16F0A4
:102D10008CEF16F094EF16F0000E016E000E026EAE
:102D2000000E036E000E046E000E0514096E000EF8
:102D300006140A6E800E07140B6E7F0E08140C6EBC
:102D400009500A100B100C10D8A4A9EF16F0ABEF25
:102D500016F0B3EF16F0000E056E000E066E000EB4
:102D6000076E000E086E055001180FE1065002189C
:102D70000CE10750031809E108500418D8B4C3EF58
:102D800016F0C5EF16F0C8EF16F0D890C9EF16F0A0
:102D9000D880120016BECFEF16F0D1EF16F0D7EFA5
:102DA00016F015C01AF016C01BF0DBEF16F0000E7F
:102DB0001B6E000E1A6E000E196E000E186EEDEFEF
:102DC00016F0000E026E200E016E11C003F012C04C
:102DD00004F010EC16F0184A192A1A50185C195011
:102DE000800A176E1B50800A1758D8A0FAEF16F009
:102DF000FCEF16F0E1EF16F013C00AF014C00BF070
:102E000011C00CF012C00DF093EC18F01200000E7F
:102E1000A7EC17F0680E046EE40EE82EFED7042E21
:102E2000FCD700D0030E83EC19F01A0E046EF80ED6
:102E3000E82EFED7042EFCD700D0030E83EC19F049
:102E40003A0E046E230EE82EFED7042EFCD700F0B7
:102E5000030E83EC19F0020E83EC19F0020E83ECE2
:102E600019F0080E83EC19F0000E83EC19F00C0E2B
:102E700083EC19F0000E83EC19F0060E83EC19F0C8
:102E8000120004BE50EF17F004500310021006E1C8
:102E90000104D8B04EEF17F050EF17F06BEF17F0BA
:102EA00001C005F002C006F003C007F004C008F03E
:102EB000051E061E071E081E052A000E06220722F2
:102EC000082205C001F006C002F007C003F008C0E8
:102ED00004F073EF17F001C001F002C002F003C06C
:102EE00003F004C004F01200056E0504D8A47BEFC3
:102EF00017F07DEF17F08EEF17F004507F0F086E7C
:102F000008380F0B066E08500F0B076E065083EC47
:102F100019F0075083EC19F0A6EF17F0020E051810
:102F2000D8A495EF17F097EF17F0A6EF17F004501D
:102F3000BF0F086E08380F0B066E08500F0B076E98
:102F4000065083EC19F0075083EC19F01200016E63
:102F500001A0ADEF17F0AFEF17F0B2EF17F08C88CC
:102F6000B3EF17F08C9801A2B8EF17F0BAEF17F093
:102F7000BDEF17F08C8ABEEF17F08C9A01A4C3EF57
:102F800017F0C5EF17F0C8EF17F08C8CC9EF17F0EA
:102F90008C9C01A6CEEF17F0D0EF17F0D3EF17F00F
:102FA0008C8ED4EF17F08C9E12009B0E00019F6F49
:102FB000000EA06F97C0A1F098C0A2F0000EA56F00
:102FC000000EA46F000EAB6F000EAA6FA10E576E1D
:102FD000000E586E99C059F09AC05AF09F0E5B6E61
:102FE000000E5C6E26EC18F00001A4519725D96EF6
:102FF000A5519821DA6E000EDF6E120003C009F0B1
:1030000004C00AF001C007F002C008F018EF18F081
:1030100009C0D9FF0AC0DAFFDF500B6E094A0A2A3D
:1030200007C0D9FF08C0DAFF0BC0DFFF074A082A34
:103030000506D8A00606052806E10628D8A423EF31
:1030400018F025EF18F008EF18F0120059C05DF0E5
:103050005AC05EF03AEF18F057C04EF058C04FF02B
:103060005D0E506E000E516E5BC052F05CC053F0AE
:1030700051EC0FF05DC0F6FF5EC0F7FF0800F550A1
:103080000009D8A446EF18F048EF18F02CEF18F01C
:10309000000E586E000E576E1200000E411A000E00
:1030A000421A000E431A800E441A3DC02DF03EC055
:1030B0002EF03FC02FF040C030F041C031F042C090
:1030C00032F043C033F044C034F00FEC09F02DC0AF
:1030D0003DF02EC03EF02FC03FF030C040F0120057
:1030E000010E056E200E01180210D8B47AEF18F008
:1030F0007CEF18F08FEF18F0F70E0124036EFF0E2F
:103100000220046E045009E1050E035CD8A08BEF89
:1031100018F08DEF18F08FEF18F0000E056E05C057
:1031200001F0026A1200000E106E000E0F6EA4EF86
:1031300018F00EC001F0026A0CC003F00DC004F0DC
:1031400010EC16F00F4A102A0F500A24D96E1050B6
:103150000B20DA6EDF500E6E0E50D8A4B2EF18F0CE
:10316000B4EF18F099EF18F0120003C005F004C096
:1031700006F001C007F002C008F005C0F6FF06C067
:10318000F7FF054A062A07C0D9FF08C0DAFF074A39
:10319000082A0800F5CFDFFFDF50D8A4D2EF18F0DF
:1031A000D4EF18F0BDEF18F01200000E086E000EFC
:1031B000076EE6EF18F007500524D96E0850062078
:1031C000DA6EDF5011EC19F0074A082A075005247F
:1031D000D96E08500620DA6EDF50D8A4F2EF18F04E
:1031E000F4EF18F0DBEF18F012000150021003109A
:1031F0000410D8B4FEEF18F000EF19F008EF19F042
:10320000000E011A000E021A000E031A800E041A94
:1032100001C001F002C002F003C003F004C004F0DA
:103220001200046E04500F0B026E0450F00B036E7C
:103230008C8403380F0BA7EC17F08C86350EE82E24
:10324000FED700F08C960250A7EC17F08C86350E56
:10325000E82EFED700F08C961200056E05C003F034
:1032600003460346C2500318830B0318C26EC28282
:10327000C2B23DEF19F03FEF19F038EF19F0C4502A
:10328000046E036AC3500324016E000E0420026E14
:103290001200D00E0124036EFF0E0220046E0450B3
:1032A0000AE10A0E035CD8A058EF19F05BEF19F0A1
:1032B000010E5CEF19F0000E016E026A120001505F
:1032C0000302F3CF05F0F4CF06F001500402F350EF
:1032D000062602500302F350062605C001F006C080
:1032E00002F0120001EE00F0500EEE6AE806FDE179
:1032F00000EEB0F02D0EEE6AE806FDE1000EF86E6D
:103300000001DDEF10F0036E8C940350A7EC17F072
:103310008C86150E026EC60EE82EFED7022EFCD746
:1033200000D08C961200000E8C6E000E7A6E0F018B
:103330005C815C835C85000E5E6F000E956E9380F1
:10334000938293841200F30EC116FC0EC116C08E38
:10335000C050C70B2009C06EC050F80B0509C06EE5
:10336000C2801200000E83EC19F0010E83EC19F0FC
:103370001200700ED312D350FC0B0209D36E120050
:02338000120039
:020000040020DA
:08000000FFFFFFFFFFFFFFFF00
:020000040030CA
:0E00000000285E3CFF5381FF0FC00FE00F4051
:00000001FF
