:0400000033EF00F0EA
:100008000182F2A40AEF00F00CEF00F013EF00F009
:10001800F294010E8D1ACF0ED76E2C0ED66E9EA0BE
:1000280018EF00F01AEF00F022EF00F09E90020E99
:100038008D1A3C0ECF6EB00ECE6E8C2AA1A227EF81
:1000480000F029EF00F031EF00F0A192040E8D1AB4
:10005800892A9E0EB36E580EB26E0192110092EF6D
:1000680000F0D59ED59CD59AD596D550F80B0509A4
:10007800D56ECF0ED76E2C0ED66ED58ECD903F0E88
:10008800CD16CD96CD94CD92300ECD123B0ECF6EBF
:10009800E80ECE6ECD80B1903F0EB116B196B194F8
:1000A800B192300EB1129E0EB36E580EB26EB18080
:1000B8001200000E8C6E000E896E8D908D928D94BC
:1000C800000E7A6E0F015F915F935F95000E5E6F71
:1000D800000E5B6F969096929694000E956E000EA9
:1000E800926E12008BEC00F05DEC00F082EC00F0F8
:1000F80035EC00F07EEF00F033EF00F0F28EF28C7A
:10010800F294F28A9E909D80A192A0821200700EB5
:10011800D312D350FC0B0209D36E12000190019246
:06012800000176EF00F07B
:020000040020DA
:08000000FFFFFFFFFFFFFFFF00
:020000040030CA
:0E00000000285E3CFF5381FF0FC00FE00F4051
:00000001FF
