:040000003BEF05F0DD
:0F08000000637572736F207543205049430000E9
:10081000000EACEC04F0680E046EE40EE82EFED779
:10082000042EFCD700D0030E21EC05F01A0E046E46
:10083000F80EE82EFED7042EFCD700D0030E21ECD4
:1008400005F03A0E046E230EE82EFED7042EFCD7D8
:1008500000F0030E21EC05F0020E21EC05F0020E73
:1008600021EC05F0080E21EC05F0000E21EC05F05E
:100870000C0E21EC05F0000E21EC05F0060E21EC2B
:1008800005F0120049EC05F031EC05F008EC04F03D
:1008900042EC05F0040E046E010E79EC04F0520EE9
:1008A00005EC05F0410E05EC05F0530E05EC05F0E6
:1008B000200E05EC05F0550E05EC05F04E0E05EC8E
:1008C00005F04D0E05EC05F0530E05EC05F04D0E50
:1008D00005EC05F0010E046E020E79EC04F0010E39
:1008E000056E080E066EDAEC04F04AEF04F000EF35
:1008F00000F0056E0504D8A480EF04F082EF04F048
:1009000093EF04F004507F0F086E08380F0B066E4B
:1009100008500F0B076E065021EC05F0075021EC34
:1009200005F0ABEF04F0020E0518D8A49AEF04F01E
:100930009CEF04F0ABEF04F00450BF0F086E0838D2
:100940000F0B066E08500F0B076E065021EC05F0DA
:10095000075021EC05F01200016E01A0B2EF04F087
:10096000B4EF04F0B7EF04F08C88B8EF04F08C9883
:1009700001A2BDEF04F0BFEF04F0C2EF04F08C8AD7
:10098000C3EF04F08C9A01A4C8EF04F0CAEF04F09E
:10099000CDEF04F08C8CCEEF04F08C9C01A6D3EF4D
:1009A00004F0D5EF04F0D8EF04F08C8ED9EF04F00A
:1009B0008C9E1200000E0A6E000E096EF0EF04F01D
:1009C00009500524076E0A500620086E07C0F6FF7E
:1009D00008C0F7FF0800F55005EC05F0094A0A2A9F
:1009E00009500524076E0A500620086E07C0F6FF5E
:1009F00008C0F7FF0800F5500009D8A402EF05F081
:100A000004EF05F0E0EF04F01200046E04500F0B49
:100A1000026E0450F00B036E8C8403380F0BACECA9
:100A200004F08C86350EE82EFED700F08C9602502E
:100A3000ACEC04F08C86350EE82EFED700F08C96D8
:100A40001200036E8C940350ACEC04F08C86150EEF
:100A5000026EC60EE82EFED7022EFCD700D08C9672
:100A60001200000E8C6E000E7A6E000E0F015E6F8B
:100A7000000E956E1200000EF86E080EF76E000163
:100A800042EF04F0000E21EC05F0010E21EC05F020
:100A90001200700ED312D350FC0B0209D36E120059
:020000040020DA
:08000000FFFFFFFFFFFFFFFF00
:020000040030CA
:0E00000000285E3CFF5381FF0FC00FE00F4051
:00000001FF
