:040000007FEF00F09E
:100008005C82E1CF73F0E2CF74F0D9CF75F0DACF2C
:1000180076F0F3CF77F0F4CF78F0F6CF79F0F7CF2A
:100028007AF0F8CF7BF0F5CF7CF0F2A21EEF00F06B
:1000380020EF00F023EF00F00001D12BF292F0A0A6
:1000480028EF00F02AEF00F02DEF00F00001D02B90
:10005800F090F0A232EF00F034EF00F037EF00F04C
:10006800010E8D1AF092D20E0001606F000E616FC2
:100078000F0E626F080E636FD1C064F0656B63EC9E
:1000880012F0200E0001606F010E616F010E626FA9
:10009800080E636FD0C064F0656B63EC12F0010E5C
:1000A800046E010E1DEC11F0D20E056E000E066EE8
:1000B80057EC13F0010E046E020E1DEC11F0200E29
:1000C800056E010E066E57EC13F07CC0F5FF7BC081
:1000D800F8FF7AC0F7FF79C0F6FF78C0F4FF77C061
:1000E800F3FF76C0DAFF75C0D9FF74C0E2FF73C0B2
:0A00F800E1FF5C92110039EF14F0F3
:1008000000506572736F6E61733A25303364004136
:0B08100075746F733A253033640000EC
:10081C00BEC0D9FFBFC0DAFFDECFF6FFDDCFF7FFDA
:10082C000800F550250AD8A41EEF04F020EF04F0C0
:10083C00A2EF05F0BEC0D9FFBFC0DAFFDE2A000E62
:10084C00DD22000E0001CB6F000ECA6FCAC0CEF0C5
:10085C00CBC0CFF0CC69CD69000E0101396F000E11
:10086C00386F81EF04F0CE81BEC0D9FFBFC0DAFF74
:10087C00DE2A000EDD2281EF04F0CE833AEF04F085
:10088C00CE853AEF04F0CE873AEF04F0CE893AEFFA
:10089C0004F0000E0101396F010E386F81EF04F086
:1008AC00BEC0D9FFBFC0DAFFDECFF6FFDDCFF7FF4A
:1008BC000800F5500001C26FC36BC351000AD8B4D5
:1008CC006AEF04F04FEF04F0C251200AD8B449EF9C
:1008DC0004F0030AD8B44CEF04F0080AD8B446EF7D
:1008EC0004F0060AD8B439EF04F01D0AD8B443EF6B
:1008FC0004F04FEF04F0010138513911D8B489EFED
:10090C0004F08BEF04F056EF04F00001CEA191EF50
:10091C0004F093EF04F094EF04F0CE93BEC0D9FF33
:10092C00BFC0DAFFDECFF6FFDDCFF7FF0800F550D2
:10093C002A0AD8A4A4EF04F0A6EF04F0CFEF04F039
:10094C00BEC0D9FFBFC0DAFFDE2A000EDD22C0C058
:10095C00D9FFC1C0DAFFDFCFC2F0020EDE26DFCF37
:10096C00C3F0000EDD22C2C0D9FFC3C0DAFFDECF58
:10097C00CAF0DDCFCBF0CBBFC8EF04F0C6EF04F06C
:10098C0006EF05F0CE81CA6DCB1FD8B0CB2B06EF8E
:10099C0005F0BEC0D9FFBFC0DAFFDECF84F0DDCFDB
:1009AC0085F03FEC0DF084C0CAF085C0CBF0E6EFCB
:1009BC0004F0BEC0D9FFBFC0DAFFDE2A000EDD2274
:1009CC00D00E0001C26FFF0EC36FBEC0D9FFBFC0F7
:1009DC00DAFFDECFF6FFDDCFF7FF0800F550C46F6E
:1009EC00C56BC251C427C351C523C55109E10A0EB9
:1009FC00C45DD8A004EF05F006EF05F0DFEF04F0BE
:100A0C00BEC0D9FFBFC0DAFFDECFF6FFDDCFF7FFE8
:100A1C000800F550640AD8B416EF05F018EF05F08D
:100A2C002AEF05F0BEC0D9FFBFC0DAFFDECFF6FF5C
:100A3C00DDCFF7FF0800F550690AD8A428EF05F0C0
:100A4C002AEF05F06BEF05F0BEC0D9FFBFC0DAFF8F
:100A5C00DE2A000EDD22C0C0D9FFC1C0DAFFDFCF15
:100A6C00C2F0020EDE26DFCFC3F0000EDD22C2C0C4
:100A7C00D9FFC3C0DAFFDECF30F1DDCF31F1010198
:100A8C00000E31BFFF0E326F336F346F356F366F20
:100A9C00376FBCC098F0BDC099F030C19AF031C12D
:100AAC009BF032C19CF033C19DF034C19EF035C136
:100ABC009FF036C1A0F037C1A1F06DEC07F098C0E3
:100ACC00BCF099C0BDF0BEEF05F0BEC0D9FFBFC0F1
:100ADC00DAFFDECFF6FFDDCFF7FF0800F550250A71
:100AEC00D8A47BEF05F07DEF05F095EF05F0BEC0C7
:100AFC00D9FFBFC0DAFFDE2A000EDD22000E7E6FAA
:100B0C00250E7D6FBCC07FF0BDC080F017EC0FF0E0
:100B1C00000E0001BD6F010EBC6FBEEF05F0BEC034
:100B2C00D9FFBFC0DAFFDE2A000EDD22000EBD6F3A
:100B3C00000EBC6FBEEF05F0BEC0D9FFBFC0DAFF20
:100B4C00DECFF6FFDDCFF7FF0800F55000017D6F1B
:100B5C007E6BBCC07FF0BDC080F017EC0FF0BEC048
:100B6C00D9FFBFC0DAFFDE2A000EDD228EEF05F0C2
:100B7C00120042C0D9FF43C0DAFFDECFF6FFDDCF53
:100B8C00F7FF0800F550250AD8A4CFEF05F0D1EFF8
:100B9C0005F051EF07F042C0D9FF43C0DAFFDE2A5F
:100BAC00000EDD22000E0001CB6F000ECA6FCAC012
:100BBC00CEF0CBC0CFF0CC69CD69000E536E000ED9
:100BCC00526E34EF06F00001CE8142C0D9FF43C013
:100BDC00DAFFDE2A000EDD2234EF06F00001CE83B0
:100BEC00EBEF05F00001CE85EBEF05F00001CE87B1
:100BFC00EBEF05F00001CE89EBEF05F0000E536E24
:100C0C00010E526E34EF06F042C0D9FF43C0DAFF3A
:100C1C00DECFF6FFDDCFF7FF0800F550466E476AD2
:100C2C004750000AD8B41DEF06F004EF06F046500A
:100C3C00200AD8B4FCEF05F0030AD8B400EF06F094
:100C4C00080AD8B4F8EF05F0060AD8B4E9EF05F0B5
:100C5C001D0AD8B4F4EF05F004EF06F0525053100F
:100C6C00D8B43BEF06F03DEF06F00AEF06F00001BA
:100C7C00CEA143EF06F045EF06F046EF06F0CE931B
:100C8C0042C0D9FF43C0DAFFDECFF6FFDDCFF7FF5E
:100C9C000800F5502A0AD8A456EF06F058EF06F0D3
:100CAC0081EF06F042C0D9FF43C0DAFFDE2A000E06
:100CBC00DD2244C0D9FF45C0DAFFDFCF46F0020E7B
:100CCC00DE26DFCF47F0000EDD2246C0D9FF47C03D
:100CDC00DAFFDECFCAF0DDCFCBF0CBBF7AEF06F078
:100CEC0078EF06F0B7EF06F0CE81CA6DCB1FD8B007
:100CFC00CB2BB7EF06F042C0D9FF43C0DAFFDECFF3
:100D0C0007F0DDCF08F0ECEC0DF007C0CAF008C01E
:100D1C00CBF098EF06F042C0D9FF43C0DAFFDE2AD1
:100D2C00000EDD22D00E466EFF0E476E42C0D9FF7C
:100D3C0043C0DAFFDECFF6FFDDCFF7FF0800F5503A
:100D4C00486E496A4650482647504922495009E1A5
:100D5C000A0E485CD8A0B5EF06F0B7EF06F091EF9D
:100D6C0006F042C0D9FF43C0DAFFDECFF6FFDDCF7D
:100D7C00F7FF0800F550640AD8B4C7EF06F0C9EFC6
:100D8C0006F0DBEF06F042C0D9FF43C0DAFFDECF3E
:100D9C00F6FFDDCFF7FF0800F550690AD8A4D9EFAC
:100DAC0006F0DBEF06F01BEF07F042C0D9FF43C0A3
:100DBC00DAFFDE2A000EDD2244C0D9FF45C0DAFF7F
:100DCC00DFCF46F0020EDE26DFCF47F0000EDD222D
:100DDC0046C0D9FF47C0DAFFDECF4AF0DDCF4BF07B
:100DEC00000E4BBEFF0E4C6E4D6E4E6E4F6E506E27
:100DFC00516E40C01CF041C01DF04AC01EF04BC0EB
:100E0C001FF04CC020F04DC021F04EC022F04FC05E
:100E1C0023F050C024F051C025F0DFEC08F01CC0CA
:100E2C0040F01DC041F06CEF07F042C0D9FF43C049
:100E3C00DAFFDECFF6FFDDCFF7FF0800F550250A0D
:100E4C00D8A42BEF07F02DEF07F044EF07F042C0CA
:100E5C00D9FF43C0DAFFDE2A000EDD22000E026E3F
:100E6C00250E016E40C003F041C004F0E2EC0FF01F
:100E7C00000E416E010E406E6CEF07F042C0D9FFC0
:100E8C0043C0DAFFDE2A000EDD22000E416E000E9A
:100E9C00406E6CEF07F042C0D9FF43C0DAFFDECFE3
:100EAC00F6FFDDCFF7FF0800F550016E026A40C077
:100EBC0003F041C004F0E2EC0FF042C0D9FF43C094
:100ECC00DAFFDE2A000EDD223EEF07F012009AC098
:100EDC00B2F09BC0B3F09CC0B4F09DC0B5F09EC006
:100EEC00B6F09FC0B7F0A0C0B8F0A1C0B9F0000137
:100EFC00B9BF83EF07F086EF07F0010E87EF07F01D
:100F0C00000EB06FB16BB051B111D8B490EF07F0C7
:100F1C0092EF07F0A2EF07F0B91FB81FB71FB61F6B
:100F2C00B51FB41FB31FB26D000EB323B423B5238A
:100F3C00B623B723B823B923CDBFA7EF07F0A9EF8A
:100F4C0007F0AAEF07F0CE93CDBFB7EF07F0CD5166
:100F5C0006E1CC05D8B0B5EF07F0B7EF07F0BDEF61
:100F6C0007F0000EAD6F010EAC6FC1EF07F0CCC0F7
:100F7C00ACF0CDC0ADF0CAC0AEF0CBC0AFF0B0514C
:100F8C00B111D8A4CCEF07F0CEEF07F0D5EF07F0F6
:100F9C00CEA5D3EF07F0D5EF07F0D8EF07F0AE07EB
:100FAC00D8A0AF07000EBB6F1F0EBA6F000E010169
:100FBC001F6F5EEF08F0BA07D8A0BB07000EBA256A
:100FCC00D96E010EBB21DA6EB2C07DF0B3C07EF0DB
:100FDC00B4C07FF0B5C080F0B6C081F0B7C082F06D
:100FEC00B8C083F0B9C084F00A0E856F000E866F0E
:100FFC00000E876F000E886F000E896F000E8A6FCF
:10100C00000E8B6F000E8C6FDAEC0BF07DC0A2F033
:10101C007EC0A3F07FC0A4F080C0A5F081C0A6F074
:10102C0082C0A7F083C0A8F084C0A9F0A2C08FF042
:10103C00A4C090F016EC13F000018F51300FDF6E4E
:10104C00AC07D8A0AD07AE07D8A0AF07B2C07DF0F3
:10105C00B3C07EF0B4C07FF0B5C080F0B6C081F0F4
:10106C00B7C082F0B8C083F0B9C084F00A0E856FA7
:10107C00000E866F000E876F000E886F000E896F52
:10108C00000E8A6F000E8B6F000E8C6F51EC0AF005
:10109C007DC0B2F07EC0B3F07FC0B4F080C0B5F0BC
:1010AC0081C0B6F082C0B7F083C0B8F084C0B9F08C
:1010BC000001BBBF6AEF08F0BB5108E1BA05D8A02C
:1010CC006AEF08F06CEF08F09CEF08F0B251B31126
:1010DC00B411B511B611B711B811B911D8A479EF73
:1010EC0008F07BEF08F0E1EF07F0ADBF88EF08F0F8
:1010FC00AD5106E1AC05D8B086EF08F088EF08F0EA
:10110C00E1EF07F0AFBF93EF08F0AF5108E1AE0588
:10111C00D8A093EF08F095EF08F09CEF08F0CEB351
:10112C009AEF08F09CEF08F0E1EF07F0B051B11125
:10113C00D8A4A3EF08F0A5EF08F0ACEF08F0CEA50B
:10114C00AAEF08F0ACEF08F0CAEF08F0BA07D8A085
:10115C00BB07B051B111D8A4B6EF08F0B8EF08F046
:10116C00BEEF08F0000EAB6F2B0EAA6FC2EF08F0AB
:10117C00000EAB6F2D0EAA6F000EBA25D96E010EA4
:10118C00BB21DA6EAAC0DFFF98C08DF099C08EF03B
:10119C00000EBA258F6F010EBB21906FAEC091F07F
:1011AC00AFC092F07DEC0FF08DC098F08EC099F02E
:1011BC0012001EC036F01FC037F020C038F021C01E
:1011CC0039F022C03AF023C03BF024C03CF025C0DB
:1011DC003DF03DBEF4EF08F0F7EF08F0010EF8EF2C
:1011EC0008F0000E346E356A34503510D8B401EF67
:1011FC0009F003EF09F013EF09F03D1E3C1E3B1EF6
:10120C003A1E391E381E371E366C000E3722382215
:10121C0039223A223B223C223D220001CDBF19EF5C
:10122C0009F01BEF09F01CEF09F0CE93CDBF29EFAD
:10123C0009F0CD5106E1CC05D8B027EF09F029EF24
:10124C0009F02FEF09F0000E316E010E306E33EF06
:10125C0009F0CCC030F0CDC031F0CAC032F0CBC0F8
:10126C0033F034503510D8A43EEF09F040EF09F0BC
:10127C0047EF09F0CEA545EF09F047EF09F04AEF2B
:10128C0009F03206D8A03306000E3F6E1F0E3E6EDC
:10129C00000E01011F6FCFEF09F03E06D8A03F06EC
:1012AC00000E3E24D96E010E3F20DA6E36C001F0DE
:1012BC0037C002F038C003F039C004F03AC005F072
:1012CC003BC006F03CC007F03DC008F00A0E096EAA
:1012DC00000E0A6E000E0B6E000E0C6E000E0D6EE4
:1012EC00000E0E6E000E0F6E000E106E8DEC0CF0DC
:1012FC0001C026F002C027F003C028F004C029F07A
:10130C0005C02AF006C02BF007C02CF008C02DF049
:10131C0026C013F028C014F037EC13F01350300F24
:10132C00DF6E3006D8A031063206D8A0330636C0A0
:10133C0001F037C002F038C003F039C004F03AC0F5
:10134C0005F03BC006F03CC007F03DC008F00A0EAB
:10135C00096E000E0A6E000E0B6E000E0C6E000E67
:10136C000D6E000E0E6E000E0F6E000E106E16EC53
:10137C000BF001C036F002C037F003C038F004C0E7
:10138C0039F005C03AF006C03BF007C03CF008C08D
:10139C003DF03FBEDAEF09F03F5008E13E04D8A023
:1013AC00DAEF09F0DCEF09F00DEF0AF036503710E8
:1013BC00381039103A103B103C103D10D8A4E9EF0E
:1013CC0009F0EBEF09F053EF09F031BEF8EF09F03B
:1013DC00315006E13004D8B0F6EF09F0F8EF09F01F
:1013EC0053EF09F033BE03EF0AF0335008E1320437
:1013FC00D8A003EF0AF005EF0AF00DEF0AF0000198
:10140C00CEB30BEF0AF00DEF0AF053EF09F03450A6
:10141C003510D8A414EF0AF016EF0AF01EEF0AF0FC
:10142C000001CEA51CEF0AF01EEF0AF03CEF0AF00B
:10143C003E06D8A03F0634503510D8A428EF0AF049
:10144C002AEF0AF030EF0AF0000E2F6E2B0E2E6EE4
:10145C0034EF0AF0000E2F6E2D0E2E6E000E3E2471
:10146C00D96E010E3F20DA6E2EC0DFFF1CC011F0CA
:10147C001DC012F0000E3E24136E010E3F20146EA0
:10148C0032C015F033C016F047EC10F011C01CF050
:10149C0012C01DF01200000E00018E6F8CBF5BEFAE
:1014AC000AF059EF0AF06DEF0AF08C1F8B1F8A1FA0
:1014BC00891F881F871F861F856D000E8623872333
:1014CC00882389238A238B238C23010E8E6F84BF60
:1014DC0074EF0AF072EF0AF086EF0AF0841F831F94
:1014EC00821F811F801F7F1F7E1F7D6D000E7E233C
:1014FC007F2380238123822383238423010E8E1B4D
:10150C0020EE8FF0070EDE6AE806FDE285518611AB
:10151C008711881189118A118B118C11D8B499EF0C
:10152C000AF09BEF0AF0EDEF0AF0010E8D6FA9EFB8
:10153C000AF0D890853786378737883789378A37C6
:10154C008B378C378D2B8CAFAEEF0AF0B0EF0AF0E7
:10155C009FEF0AF0D8908F379037913792379337A7
:10156C0094379537963785517D5D86517E598751D5
:10157C007F5988518059895181598A5182598B518F
:10158C0083598C518459D8A0CEEF0AF0D0EF0AF0D1
:10159C00E1EF0AF085517D5F86517E5B87517F5B61
:1015AC008851805B8951815B8A51825B8B51835B53
:1015BC008C51845B8F81D8908C338B338A338933F5
:1015CC0088338733863385338D2FB0EF0AF08E51F5
:1015DC00D8B4F3EF0AF0F5EF0AF005EF0BF0961F15
:1015EC00951F941F931F921F911F901F8F6D000EBC
:1015FC0090239123922393239423952396238FC096
:10160C007DF090C07EF091C07FF092C080F093C0CE
:10161C0081F094C082F095C083F096C084F01200E3
:10162C00000E126E10BE1FEF0BF01DEF0BF031EF22
:10163C000BF0101E0F1E0E1E0D1E0C1E0B1E0A1E76
:10164C00096C000E0A220B220C220D220E220F22F4
:10165C001022010E126E08BE38EF0BF036EF0BF0B5
:10166C004AEF0BF0081E071E061E051E041E031E65
:10167C00021E016C000E0222032204220522062205
:10168C0007220822010E121A20EE13F0070EDE6A52
:10169C00E806FDE209500A100B100C100D100E108C
:1016AC000F101010D8B45DEF0BF05FEF0BF0B1EF33
:1016BC000BF0010E116E6DEF0BF0D89009360A3657
:1016CC000B360C360D360E360F361036112A10AE80
:1016DC0072EF0BF074EF0BF063EF0BF0D890133646
:1016EC001436153616361736183619361A3609507A
:1016FC00015C0A5002580B5003580C5004580D5002
:10170C0005580E5006580F50075810500858D8A0BE
:10171C0092EF0BF094EF0BF0A5EF0BF00950015E7C
:10172C000A50025A0B50035A0C50045A0D50055AC9
:10173C000E50065A0F50075A1050085A1380D89062
:10174C0010320F320E320D320C320B320A32093299
:10175C00112E74EF0BF01250D8B4B7EF0BF0B9EFA9
:10176C000BF0C9EF0BF01A1E191E181E171E161EB1
:10177C00151E141E136C000E14221522162217228D
:10178C00182219221A2213C001F014C002F015C03D
:10179C0003F016C004F017C005F018C006F019C00D
:1017AC0007F01AC008F01200000E00018E6F84BF03
:1017BC00E4EF0BF0E2EF0BF0F6EF0BF0841F831F5E
:1017CC00821F811F801F7F1F7E1F7D6D000E7E2359
:1017DC007F2380238123822383238423010E8E6F16
:1017EC008CBFFDEF0BF0FBEF0BF00DEF0CF08C1F33
:1017FC008B1F8A1F891F881F871F861F856D000EF0
:10180C0086238723882389238A238B238C23855142
:10181C0086118711881189118A118B118C11D8B4FA
:10182C001AEF0CF01CEF0CF064EF0CF0010E8D6F46
:10183C002AEF0CF0D8908537863787378837893769
:10184C008A378B378C378D2B8CAF2FEF0CF031EF19
:10185C000CF020EF0CF085517D5D86517E5987513F
:10186C007F5988518059895181598A5182598B519C
:10187C0083598C518459D8A046EF0CF048EF0CF0EA
:10188C0058EF0CF085517D5F86517E5B87517F5BF5
:10189C008851805B8951815B8A51825B8B51835B60
:1018AC008C51845BD8908C338B338A338933883357
:1018BC008733863385338D2F31EF0CF08E51D8B4AE
:1018CC006AEF0CF06CEF0CF07CEF0CF0841F831FB4
:1018DC00821F811F801F7F1F7E1F7D6D000E7E2348
:1018EC007F23802381238223832384237DC07DF067
:1018FC007EC07EF07FC07FF080C080F081C081F020
:10190C0082C082F083C083F084C084F01200000E89
:10191C00126E08BE96EF0CF094EF0CF0A8EF0CF0E2
:10192C00081E071E061E051E041E031E021E016C49
:10193C00000E02220322042205220622072208227C
:10194C00010E126E10BEAFEF0CF0ADEF0CF0BFEF4E
:10195C000CF0101E0F1E0E1E0D1E0C1E0B1E0A1E52
:10196C00096C000E0A220B220C220D220E220F22D1
:10197C00102209500A100B100C100D100E100F1025
:10198C001010D8B4CCEF0CF0CEEF0CF016EF0DF02D
:10199C00010E116EDCEF0CF0D89009360A360B36BE
:1019AC000C360D360E360F361036112A10AEE1EF0E
:1019BC000CF0E3EF0CF0D2EF0CF00950015C0A5084
:1019CC0002580B5003580C5004580D5005580E502B
:1019DC0006580F50075810500858D8A0F8EF0CF0C4
:1019EC00FAEF0CF00AEF0DF00950015E0A50025AA2
:1019FC000B50035A0C50045A0D50055A0E50065AEF
:101A0C000F50075A1050085AD89010320F320E321D
:101A1C000D320C320B320A320932112EE3EF0CF07C
:101A2C001250D8B41CEF0DF01EEF0DF02EEF0DF090
:101A3C00081E071E061E051E041E031E021E016C38
:101A4C00000E02220322042205220622072208226B
:101A5C0001C001F002C002F003C003F004C004F0A6
:101A6C0005C005F006C006F007C007F008C008F076
:101A7C001200000E00018D6F000E8C6F000E8B6F2C
:101A8C00000E8A6F4CEF0DF0844B852B84C0F6FF53
:101A9C0085C0F7FF0800F550200AD8B458EF0DF0B8
:101AAC005AEF0DF04AEF0DF0F70E866FFF0E876FB1
:101ABC0084C0F6FF85C0F7FF0800F550886F896B6E
:101ACC008651882787518923895109E1050E885D44
:101ADC00D8A073EF0DF075EF0DF04AEF0DF07FEF1E
:101AEC000DF0000E8B6F010E8A6F844B852BB5EFBA
:101AFC000DF084C0F6FF85C0F7FF0800F550866F27
:101B0C00876B8751000AD8B48EEF0DF0B5EF0DF04E
:101B1C0086512B0AD8B47BEF0DF0060AD8B477EFB8
:101B2C000DF0B5EF0DF08CC07DF08DC07EF0000E89
:101B3C00806F0A0E7F6F25EC14F084C0F6FF85C011
:101B4C00F7FF0800F55000017D5F000E7E5B300E44
:101B5C007D258C6F000E7E218D6F7BEF0DF0D00EEE
:101B6C00866FFF0E876F84C0F6FF85C0F7FF0800F5
:101B7C00F550886F896B8651882787518923895145
:101B8C0009E10A0E885DD8A0CEEF0DF0D0EF0DF074
:101B9C0099EF0DF08A518B11D8A4D7EF0DF0D9EF36
:101BAC000DF0E7EF0DF08CC086F08DC087F0861F2E
:101BBC00871F864B872B86C084F087C085F0EBEFA0
:101BCC000DF08CC084F08DC085F01200000E106EEC
:101BDC00000E0F6E000E0E6E000E0D6EF8EF0DF077
:101BEC00074A082A07C0F6FF08C0F7FF0800F5509F
:101BFC00200AD8B404EF0EF006EF0EF0F6EF0DF05D
:101C0C00F70E096EFF0E0A6E07C0F6FF08C0F7FF4D
:101C1C000800F5500B6E0C6A09500B260A500C226A
:101C2C000C5009E1050E0B5CD8A01FEF0EF021EF54
:101C3C000EF0F6EF0DF02BEF0EF0000E0E6E010E07
:101C4C000D6E074A082A60EF0EF007C0F6FF08C0B9
:101C5C00F7FF0800F550096E0A6A0A50000AD8B45A
:101C6C003AEF0EF060EF0EF009502B0AD8B427EFC4
:101C7C000EF0060AD8B423EF0EF060EF0EF00FC092
:101C8C0001F010C002F0000E046E0A0E036E5FEC41
:101C9C0014F007C0F6FF08C0F7FF0800F550015E0E
:101CAC00000E025A300E01240F6E000E0220106E30
:101CBC0027EF0EF0D00E096EFF0E0A6E07C0F6FF6E
:101CCC0008C0F7FF0800F5500B6E0C6A09500B2684
:101CDC000A500C220C5009E10A0E0B5CD8A079EFCB
:101CEC000EF07BEF0EF045EF0EF00D500E10D8A459
:101CFC0082EF0EF084EF0EF092EF0EF00FC009F0B1
:101D0C0010C00AF0091E0A1E094A0A2A09C007F067
:101D1C000AC008F096EF0EF00FC007F010C008F0E4
:101D2C00120095EC14F096EC13F082EC14F0AAEC83
:101D3C0010F08EEC14F0D20E0101406F000E416FCA
:101D4C000F0E426F080E436FD1C044F1456B3AEC55
:101D5C0012F0200E0101406F010E416F010E426F17
:101D6C00080E436FD0C044F1456B3AEC12F0010EF3
:101D7C000001806F010EE6EC10F0D20E0001816FB5
:101D8C00000E826FB0EC12F0010E0001806F020E9B
:101D9C00E6EC10F0200E0001816F010E826FB0ECAA
:101DAC0012F00C0E896E3D0E0101546FE10E536F53
:101DBC003F0EE82EFED7532FFCD7542FFAD700D066
:101DCC00120E896E3D0E0101546FE10E536F3F0EE2
:101DDC00E82EFED7532FFCD7542FFAD700D0210E64
:101DEC00896E3D0E0101546FE10E536F3F0EE82ECC
:101DFC00FED7532FFCD7542FFAD700D0120E896E72
:101E0C003D0E0101546FE10E536F3F0EE82EFED7CD
:101E1C00532FFCD7542FFAD700D0D7EF0EF07FEF0B
:101E2C0000F000017F518011D8B41FEF0FF021EFAB
:101E3C000FF02AEF0FF07F518011D8A428EF0FF08C
:101E4C002AEF0FF02FEF0FF07D519CEC14F07CEF8C
:101E5C000FF020EE09F07F51D9268051DA22DE50A6
:101E6C00DE10D8B43CEF0FF03EEF0FF059EF0FF04F
:101E7C0020EE09F07F51D9268051DA2210EE03F0C2
:101E8C007F51E1268051E222DE50E65CE650800A6A
:101E9C00856FDE50800A8559D8B057EF0FF059EF97
:101EAC000FF07CEF0FF020EE03F07F51D92680511C
:101EBC00DA22DECF81F0DDCF82F07FC0D9FF80C087
:101ECC00DAFFDECF83F0DDCF84F081518325D96E2C
:101EDC0082518421DA6E7DC0DFFF20EE03F07F514A
:101EEC00D9268051DA22DE2A000EDD2212000001F2
:101EFC00CEA183EF0FF085EF0FF08FEF0FF08FC0B7
:101F0C0086F090C087F08DC088F08EC089F08CEC84
:101F1C0012F0000192BF95EF0FF097EF0FF09DEFCD
:101F2C000FF091C096F092C097F0A1EF0FF0000E59
:101F3C00976F000E966F000E956F000E946FB4EFB6
:101F4C000FF0000E7E6F200E7D6F8DC07FF08EC067
:101F5C0080F017EC0FF00001944B952B9651945D8B
:101F6C009551800A936F9751800A9359D8A0C1EF6D
:101F7C000FF0C3EF0FF0A7EF0FF0CEB1C8EF0FF0DB
:101F8C00CAEF0FF0D4EF0FF08FC086F090C087F03F
:101F9C008DC088F08EC089F08CEC12F08FC07DF073
:101FAC0090C07EF0B4EC13F0000196517D258D6F3E
:101FBC0097517E218E6F120003500410D8B4E9EFB4
:101FCC000FF0EBEF0FF0F4EF0FF003500410D8A468
:101FDC00F2EF0FF0F4EF0FF0F9EF0FF001509DEC72
:101FEC0014F046EF10F020EE09F00350D9260450FF
:101FFC00DA22DE50DE10D8B406EF10F008EF10F045
:10200C0023EF10F020EE09F00350D9260450DA2209
:10201C0010EE03F00350E1260450E222DE50E65CA1
:10202C00E650800A096EDE50800A0958D8B021EFBC
:10203C0010F023EF10F046EF10F020EE03F00350F9
:10204C00D9260450DA22DECF05F0DDCF06F003C02E
:10205C00D9FF04C0DAFFDECF07F0DDCF08F0055062
:10206C000724D96E06500820DA6E01C0DFFF20EE7F
:10207C0003F00350D9260450DA22DE2A000EDD22AA
:10208C0012000001CEA14DEF10F04FEF10F059EF00
:10209C0010F013C00AF014C00BF011C00CF012C0F9
:1020AC000DF0D2EC12F016BE5EEF10F060EF10F0F7
:1020BC0066EF10F015C01AF016C01BF06AEF10F0A6
:1020CC00000E1B6E000E1A6E000E196E000E186EAE
:1020DC007CEF10F0000E026E200E016E11C003F0AA
:1020EC0012C004F0E2EC0FF0184A192A1A50185CCE
:1020FC001950800A176E1B50800A1758D8A089EF08
:10210C0010F08BEF10F070EF10F00001CEB191EFEA
:10211C0010F093EF10F09DEF10F013C00AF014C004
:10212C000BF011C00CF012C00DF0D2EC12F013C079
:10213C0001F014C002F00AEC14F01A500124116ED4
:10214C001B500220126E1200000EB2EC11F0680E41
:10215C000001806FE40EE82EFED7802FFCD700F034
:10216C00030E4CEC14F01A0E0001806FF80EE82EE2
:10217C00FED7802FFCD700F0030E4CEC14F03A0E77
:10218C000001806F230EE82EFED7802FFCD7030EA4
:10219C004CEC14F0020E4CEC14F0020E4CEC14F05F
:1021AC00080E4CEC14F0000E4CEC14F00C0E4CEC35
:1021BC0014F0000E4CEC14F0060E4CEC14F0120063
:1021CC000001816F00018105D8A4EFEF10F0F1EF51
:1021DC0010F003EF11F080517F0F846F84390F0BD7
:1021EC00826F84510F0B836F82514CEC14F0000101
:1021FC0083514CEC14F01CEF11F0020E8119D8A491
:10220C000AEF11F00CEF11F01CEF11F08051BF0F21
:10221C00846F84390F0B826F84510F0B836F825143
:10222C004CEC14F0000183514CEC14F01200056ED0
:10223C000504D8A424EF11F026EF11F037EF11F0BC
:10224C0004507F0F086E08380F0B066E08500F0BEA
:10225C00076E065072EC14F0075072EC14F04FEF4E
:10226C0011F0020E0518D8A43EEF11F040EF11F05A
:10227C004FEF11F00450BF0F086E08380F0B066EAD
:10228C0008500F0B076E065072EC14F0075072ECEE
:10229C0014F012003CC1C6F03DC1C7F0000E0001A5
:1022AC00C96F000EC86F6EEF11F03AC1BCF03BC1A4
:1022BC00BDF0C60EBE6F000EBF6F3EC1C0F03FC179
:1022CC00C1F00EEC04F00001BC51C827BD51C9236C
:1022DC00C6C0F6FFC7C0F7FF0800F5500009D8A428
:1022EC007AEF11F07CEF11F05BEF11F0C8C03AF10E
:1022FC00C9C03BF1120056C05AF057C05BF0000E3B
:10230C000001C96F000EC86F9FEF11F054C040F070
:10231C0055C041F05A0E426E000E436E58C044F048
:10232C0059C045F0BFEC05F040500001C8274150A2
:10233C00C9235AC0F6FF5BC0F7FF0800F55000092F
:10234C00D8A4ABEF11F0ADEF11F08CEF11F0C8C0C9
:10235C0054F0C9C055F0120000017D6F00017DA141
:10236C00BAEF11F0BCEF11F0BFEF11F08C88C0EF99
:10237C0011F08C987DA3C5EF11F0C7EF11F0CAEFE7
:10238C0011F08C8ACBEF11F08C9A7DA5D0EF11F067
:10239C00D2EF11F0D5EF11F08C8CD6EF11F08C9CA4
:1023AC007DA7DBEF11F0DDEF11F0E0EF11F08C8E7B
:1023BC00E1EF11F08C9E1200016E01A0E8EF11F01C
:1023CC00EAEF11F0EDEF11F08C88EEEF11F08C9834
:1023DC0001A2F3EF11F0F5EF11F0F8EF11F08C8A88
:1023EC00F9EF11F08C9A01A4FEEF11F000EF12F04E
:1023FC0003EF12F08C8C04EF12F08C9C01A609EF09
:10240C0012F00BEF12F00EEF12F08C8E0FEF12F0A9
:10241C008C9E1200010E0001836F200E7D197E111F
:10242C00D8B41BEF12F01DEF12F036EF12F0F70ECE
:10243C007F6FFF0E806F7DC081F07EC082F07F5178
:10244C00812780518223825109E1050E815DD8A03C
:10245C0032EF12F034EF12F036EF12F0000E836F01
:10246C0083C07DF07E6B1200440E0101466F010E9D
:10247C00476F40C148F141C149F1000E4C6F000E4D
:10248C004B6F000E526F000E516F480E3A6F010EDB
:10249C003B6F42C13CF143C13DF1460E3E6F010E14
:1024AC003F6F50EC11F001014B514025D96E4C514E
:1024BC004121DA6E000EDF6E1200640E0001666FB1
:1024CC00000E676F60C068F061C069F0000E6C6F41
:1024DC00000E6B6F000E726F000E716F680E546EF3
:1024EC00000E556E62C056F063C057F0660E586E03
:1024FC00000E596E81EC11F000016B516025D96E04
:10250C006C516121DA6E000EDF6E1200000E0001BC
:10251C008C6F000E8B6F9FEF12F08AC07DF07E6B7C
:10252C0088C07FF089C080F017EC0FF000018B4B56
:10253C008C2B8B518625D96E8C518721DA6EDF500E
:10254C008A6F8A51D8A4ADEF12F0AFEF12F093EF6F
:10255C0012F01200000E0001846F000E836FC3EFA7
:10256C0012F083518125D96E84518221DA6EDF50AD
:10257C0077EC13F00001834B842B83518125D96EAA
:10258C0084518221DA6EDF50D8A4CFEF12F0D1EF54
:10259C0012F0B7EF12F01200000E106E000E0F6E5C
:1025AC00E3EF12F00EC001F0026A0CC003F00DC094
:1025BC0004F0E2EC0FF00F4A102A0F500A24D96EE7
:1025CC0010500B20DA6EDF500E6E0E50D8A4F1EFC7
:1025DC0012F0F3EF12F0D8EF12F01200200E0118E7
:1025EC000210D8B4FCEF12F0FEEF12F015EF13F05E
:1025FC00F70E036EFF0E046E01C005F002C006F06C
:10260C000350052604500622065009E1050E055C10
:10261C00D8A013EF13F015EF13F015EF13F0120011
:10262C00000190BF24EF13F0905106E18F05D8B054
:10263C0022EF13F024EF13F032EF13F08FC091F070
:10264C0090C092F0911F921F914B922B91C08FF0E2
:10265C0092C090F036EF13F08FC08FF090C090F0D6
:10266C00120014BE44EF13F0145006E11304D8B05A
:10267C0042EF13F044EF13F052EF13F013C015F0C8
:10268C0014C016F0151E161E154A162A15C013F086
:10269C0016C014F056EF13F013C013F014C014F05E
:1026AC001200000E086E000E076E68EF13F0075054
:1026BC000524D96E08500620DA6EDF50EEEC13F0CC
:1026CC00074A082A07500524D96E08500620DA6EEE
:1026DC00DF50D8A474EF13F076EF13F05DEF13F026
:1026EC0012000001806F000180510F0B7E6F805132
:1026FC00F00B7F6F8C847F390F0BB2EC11F08C8652
:10270C00350EE82EFED700F08C9600017E51B2EC0F
:10271C0011F08C86350EE82EFED700F08C96120048
:10272C00000E896E000E8C6E8D90000E7A6E0F016D
:10273C005B915B935B955B9B5C915C935C955F9110
:10274C00000E5E6F000E926E000E956E969093804A
:10275C009382938485808582F19E12007DC07FF0E8
:10276C007EC080F0BDEF13F000017D4B7E2B7DC051
:10277C00D9FF7EC0DAFFDF50D8A4C7EF13F0C9EF42
:10278C0013F0BAEF13F000017F517D5D7D6F805126
:10279C007E597E6F1200D00E00017F6FFF0E806F8E
:1027AC007DC081F07EC082F07F51812780518223D1
:1027BC0082510AE10A0E815DD8A0E7EF13F0EAEF2F
:1027CC0013F0010EEBEF13F0000E7D6F7E6B120019
:1027DC00046E04500F0B026E0450F00B036E8C84CD
:1027EC0003380F0BE2EC11F08C86350EE82EFED779
:1027FC0000F08C960250E2EC11F08C86350EE82E2F
:10280C00FED700F08C96120001C003F002C004F059
:10281C0012EF14F0014A022A01C0D9FF02C0DAFFFC
:10282C00DF50D8A41CEF14F01EEF14F010EF14F0CE
:10283C000350015C016E04500258026E120000013C
:10284C007D517F03F3CF81F0F4CF82F07D51800373
:10285C00F35082277E517F03F350822781C07DF095
:10286C0082C07EF0120001EE00F0300EEE6AE80637
:10287C00FDE100EEC8F01A0EEE6AE806FDE15C9090
:10288C005C92000EF86E000197EF0EF000017F6F66
:10289C008C9400017F51B2EC11F08C86150E000166
:1028AC007E6FC60EE82EFED77E2FFCD700F08C96DE
:1028BC00120001500302F3CF05F0F4CF06F00150E3
:1028CC000402F350062602500302F350062605C0FC
:1028DC0001F006C002F01200036E8C940350E2EC7F
:1028EC0011F08C86150E026EC60EE82EFED7022E47
:1028FC00FCD700D08C961200F28EF28CF288F292F9
:10290C00F19CF086F090F19AF088F092F198120018
:10291C00000E4CEC14F0010E4CEC14F01200700E86
:10292C00D312D350FC0B0209D36E1200120012000A
:02293C00120087
:020000040020DA
:08000000FFFFFFFFFFFFFFFF00
:020000040030CA
:0E00000000285E3CFF5381FF0FC00FE00F4051
:00000001FF
