:0400000025EF00F0F8
:1000080005829EA00AEF00F00CEF00F014EF00F05C
:100018009E90020E8D1A3C0ECF6EB00ECE6E8C2ABC
:10002800A1A219EF00F01BEF00F023EF00F0A1925E
:10003800040E8D1A892A9E0EB36E580EB26E059262
:10004800110074EF00F06DEC00F056EC00F066EC77
:1000580000F03FEC00F0CECF03F0CFCF04F0B2CFEA
:1000680001F0B3CF02F003C08CFF01C089FF2FEF6E
:1000780000F025EF00F0CD90CD503F0B8009CD6EFC
:10008800CD96CD94CD82CF0ECD16CD80B190B15006
:100098003F0B8009B16EB196B194B182CF0EB11603
:1000A800B1801200000E8C6E000E896E000E7A6E02
:1000B800000E0F015E6F000E5B6F000E956E000E56
:1000C800926E1200F28EF28C9E909D80A192A08278
:1000D8001200700ED312D350FC0B0209D36E12001B
:0A00E80005900592000127EF00F0DB
:020000040020DA
:08000000FFFFFFFFFFFFFFFF00
:020000040030CA
:0E00000000285E3CFF4381FF0FC00FE00F4061
:00000001FF
