:0400000023EF00F0FA
:100008000282F2A00AEF00F00CEF00F021EF00F0FE
:100018008CBE11EF00F014EF00F0010E15EF00F0A8
:10002800000EFF0A016E013201328C5001187F0B5D
:1000380001188C6E81CF8AFFF2900292110046EF70
:1000480000F039EC00F02FEC00F040EC00F02BEF62
:1000580000F023EF00F08C9E000E7A6E0F015E9F79
:10006800959E858E858CF19E1200700ED312D3500A
:10007800FC0B0209D36E1200F290F28E868E868CEB
:0E008800F286120002900292000125EF00F0B5
:020000040020DA
:08000000FFFFFFFFFFFFFFFF00
:020000040030CA
:0E00000000285E3CFF5381FF0FC00FE00F4051
:00000001FF
