:040000003EEF3FF0A0
:107E7C00000158EF3FF0700ED312D350FC0B0209E7
:107E8C00D36E1200000E8C6E000E7A6E000E0F0177
:107E9C005E6F000E5C6F000E956E93680F0E856E14
:107EAC00F19E120041EC3FF048EC3FF081B061EFE5
:107EBC003FF063EF3FF06FEF3FF066EF3FF08C80E9
:107ECC0081A06BEF3FF06DEF3FF065EF3FF070EF8F
:107EDC003FF08C9081B275EF3FF077EF3FF083EF7E
:107EEC003FF07AEF3FF08C8281A27FEF3FF081EF81
:107EFC003FF079EF3FF084EF3FF08C9281B489EF43
:107F0C003FF08BEF3FF097EF3FF08EEF3FF08C841C
:107F1C0081A493EF3FF095EF3FF08DEF3FF098EF9A
:107F2C003FF08C9481B69DEF3FF09FEF3FF0ABEFAD
:107F3C003FF0A2EF3FF08C8681A6A7EF3FF0A9EFB0
:107F4C003FF0A1EF3FF0ACEF3FF08C9681B8B1EF72
:107F5C003FF0B3EF3FF0BFEF3FF0B6EF3FF08C8850
:107F6C0081A8BBEF3FF0BDEF3FF0B5EF3FF0C0EFA6
:107F7C003FF08C9881BAC5EF3FF0C7EF3FF0D3EFDD
:107F8C003FF0CAEF3FF08C8A81AACFEF3FF0D1EFE0
:107F9C003FF0C9EF3FF0D4EF3FF08C9A81BCD9EFA2
:107FAC003FF0DBEF3FF0E7EF3FF0DEEF3FF08C8C84
:107FBC0081ACE3EF3FF0E5EF3FF0DDEF3FF0E8EFB2
:107FCC003FF08C9C81BEEDEF3FF0EFEF3FF0FBEF0D
:107FDC003FF0F2EF3FF08C8E81AEF7EF3FF0F9EF10
:107FEC003FF0F1EF3FF05CEF3FF08C9E5CEF3FF029
:047FFC0000EF00F0A2
:020000040020DA
:08000000FFFFFFFFFFFFFFFF00
:020000040030CA
:0E00000000285E3CFF5381FF0FC00FE00F4051
:00000001FF
