:0400000057EF3FF087
:107EA800720ED36E1200086A076A066A00015DEF57
:107EB8003FF054EC3FF067EC3FF0A3EC3FF061EF8C
:107EC8003FF000EF00F0000E8C6E8B90000E7A6E83
:107ED800000E0F015E6F5B915B93000E956E9280B2
:107EE800928294901200046E04C002F0010E036E98
:107EF800022A81EF3FF0D8900336022E7FEF3FF041
:107F0800035001141200046E04C002F0010E036E47
:107F1800022A91EF3FF0D8900336022E8FEF3FF000
:107F2800035001140009D8B49CEF3FF09EEF3FF0D6
:107F3800A1EF3FF0010EA2EF3FF0000E120080CF3C
:107F480001F0000E77EC3FF0E806D8A4AEEF3FF062
:107F5800B0EF3FF0D0EF3FF080CF01F0000E87EC9C
:107F68003FF0E806D8B4BBEF3FF0BDEF3FF0B0EF0D
:107F78003FF0680E056EE40EE82EFED7052EFCD7FE
:107F880000D0082A0828D8A4CCEF3FF0CEEF3FF065
:107F9800D0EF3FF0000E086E80CF01F0010E77ECB5
:107FA8003FF00009D8A4DBEF3FF0DDEF3FF0FDEF35
:107FB8003FF080CF01F0010E77EC3FF00009D8B414
:107FC800E8EF3FF0EAEF3FF0DDEF3FF0680E056EB7
:107FD800E40EE82EFED7052EFCD700D008060828A8
:107FE800D8A4F9EF3FF0FBEF3FF0FDEF3FF0000EB4
:087FF800086E08C08CFF1200A6
:020000040020DA
:08000000FFFFFFFFFFFFFFFF00
:020000040030CA
:0E00000000285E3CFF5381FF0FC00FE00F4051
:00000001FF
