:04000000C3EF3FF01B
:107F8000000E7A6E12000001CDEF3FF0700ED3129A
:107F9000D350FC0B0209D36E1200C6EC3FF0C0ECCC
:107FA0003FF0E3EC3FF09EA4D8EF3FF0DAEF3FF074
:107FB000D3EF3FF09E94000ECF6E000ECE6ED3EF47
:107FC0003FF000EF00F00F015C959494CF0E9716F0
:107FD000BD50F00B0209BD6E59913F0ECD16CF0E6C
:107FE000CD16CD96CD94CD82CD90010EBF6E900E64
:107FF000BE6E000ECF6E000ECE6E9E94CD8012002F
:020000040020DA
:08000000FFFFFFFFFFFFFFFF00
:020000040030CA
:0E00000000285E3CFF5381FF0FC00FE00F4051
:00000001FF
