:0400000093EF04F086
:100800000000000000DCCFD1350000000000C01562
:100810003F6042A20D70A5EC363BAAB83F4F387638
:100820003F3CAA38338CBEBF350072313F1872315D
:100830003F4CBB31330EEADDB555B38A38610B3618
:10084000BBABAA2A3E42F1533E55326C3E05A38B08
:100850003EABAAAA3EB76DDB3E9A99193F6042A211
:100860000DCAF249710000804B0000803F0000C0BB
:0F0870003F00AAB83FC623F6B80040763F00000D
:10088000010E8C6E54EF04F0050E096E0F0E086E0B
:10089000F10EE82EFED7082EFCD7092EFAD700F06D
:1008A0008C508C248C6E072A0750800A790FD8A0B0
:1008B0005CEF04F05EEF04F044EF04F0070671EF24
:1008C00004F0050E096E0F0E086EF10EE82EFED72D
:1008D000082EFCD7092EFAD700F0D8908C308C6EF9
:1008E000070607BE78EF04F076EF04F061EF04F03E
:1008F000000E076E1200720ED36E000E8C6E000E8C
:100900007A6E000E0F015E6F000E956EFC0E8A1659
:100910007A945C915C93FC0E931640EC04F08DEF9E
:1009200004F000EF00F000EE01F0070EEE6AE806BA
:10093000FDE1000EF86E080EF76E00017BEF04F08B
:020000040020DA
:08000000FFFFFFFFFFFFFFFF00
:020000040030CA
:0E00000000285E3CFF5381FF0FC00FE00F4051
:00000001FF
